:020000040800F2
:100000000028002029480008550700085907000863
:100010005D07000861070008650700080000000090
:100020000000000000000000000000008136000811
:100030006907000800000000113700085537000864
:1000400071480008714800087148000871480008AC
:10005000714800087148000871480008714800089C
:10006000714800087148000871480008714800088C
:10007000714800087148000871480008714800087C
:10008000714800087148000871480008714800086C
:100090006D070008714800087148000871480008A1
:1000A0007148000879070008714800087148000885
:1000B00071480008714800080000000071480008FD
:1000C00071480008000000000000000071480008AE
:1000D000000000007148000871480008000000009E
:1000E00071480008714800087148000800000000CD
:1000F0000000000000000000000000000000000000
:0C01000000000000000000005FF808F1A3
:1001100010B5054C237833B9044B13B10448AFF341
:1001200000800123237010BD100200200000000099
:10013000D849000808B5034B1BB103490348AFF386
:10014000008008BD0000000014020020D84900080B
:1001500010B5044600F01AF92046BDE8104004F03E
:1001600071B900BF4FF4003030B5012200244FF4C4
:10017000803302254FF4E01195B00C900AA80A9242
:100180000E920B93129313910D9405940194CDE963
:100190000F44CDE90644CDE90844CDE90244049476
:1001A000119502F051F80F224FF48063294605A8FB
:1001B0000592089306950794099402F089FA102392
:1001C00001A80494019302F065FB15B030BD00BF97
:1001D000002480B58AB002F013F8FFF7C3FFCDE921
:1001E0000544CDE90744564BDFF8849199692246CE
:1001F00041F01001996198694EF2FF3100F0100052
:10020000019001989D694F4845F020059D619D69C9
:10021000022705F020050295029D9D694FF0010817
:1002200045F004059D619D69474E05F00405039561
:10023000039D9D6945F008059D619B69434D03F051
:1002400008030493049B02F0A1FC2246802140484D
:1002500002F09CFC224648464FF6234102F096FCF1
:100260004EF2FF3305A93748CDE9053807940897C2
:1002700002F096FB7F2305A935480593CDE9064793
:1002800002F08EFB802305A931480593CDE9068451
:10029000089702F085FB4FF6234305A948460593CE
:1002A000CDE90684089702F07BFB042305A94846A4
:1002B0000593CDE9064402F073FB4FF480432549D2
:1002C000254A284629606A602B61C5E90244C5E9D0
:1002D0000544C5E9074401F06DFC4FF4E1310C22FF
:1002E0001E4B1F485A61C3E900011846C3E9024486
:1002F0001C61C3E9064401F053FF78210A22194B1F
:100300003046336135603171B2603775C6F80C9094
:1003100004F00CF83046144E4246214605AD04F078
:100320002DF804F0A3F80FCE0FC53368214605A8B9
:100330002B6003F049F80D4B186003F03FF8FEE71F
:100340000010024000100140DC1000204810002086
:100350000008014000540040A08601009C100020CD
:100360000038014020000001F0490008441000203E
:10037000000C01400268034B9A4200D0704701F024
:1003800051BF00BF002C0140704700BF08B50022DC
:100390001749184803F06EFA70B91749154803F069
:1003A0007FFA88B91549134803F096FFA0B91148A0
:1003B00003F07EFAB8B908BDFFF7E6FF0E490D4815
:1003C00003F06EFA0028EDD0FFF7DEFF0B49094875
:1003D00003F082FF0028EAD0FFF7D6FF054803F0BC
:1003E00067FA0028E7D0BDE80840FFF7CDBF00BF9F
:1003F00000000020F4100020CC000020AC00002001
:1004000002680E4B9A4200D0704703F5DA33D86980
:1004100000B540F40000D861DB6983B003F4000349
:100420000193002205211420019B02F0C5FB14203A
:1004300003B05DF804EB02F0F5BB00BF005C0040C8
:1004400000F50C71D0F8680203F04ABA00EB4113D2
:10045000D3F83C21D0F8680203F070BA00EB4113E6
:10046000DA6BD0F8680203F0A7BA00BFD0F86802D0
:1004700003F042BB836810B5022B044601D0FFF79E
:1004800083FFD4F86802012103F01EFBD4F8680250
:10049000BDE8104003F0F0BA10B50446D0F8680289
:1004A00003F016FBA36923B1024A136943F0060364
:1004B000136110BD00ED00E0D0F8680203F012BB3C
:1004C00038B50446002208250221184B1848C4F804
:1004D000C03218601846C3F86842C3E90151C3E945
:1004E00006221A6200F024FAE8B900221823114605
:1004F000D4F8C00200F012FE582300228021D4F864
:10050000C00200F00BFE982300228121D4F8C00223
:1005100000F004FED4F8C002D8230022012100F02C
:10052000FDFD002038BDFFF72FFFDEE7B8130020E8
:10053000005C004008B5D0F8C00200F079FA03284A
:1005400096BF024B0220185C08BD00BF204A00087D
:1005500010B51C46D0F8C0021346224600F094FAAB
:10056000032896BF014B0220185C10BD204A0008EA
:1005700008B5D0F8C00200F0B9FA032896BF024BC4
:100580000220185C08BD00BF204A000808B5D0F85A
:10059000C00200F04FFD032896BF024B0220185CFA
:1005A00008BD00BF204A000808B5D0F8C00200F01E
:1005B0007DFD032896BF024B0220185C08BD00BFDA
:1005C000204A00080A06D0F8C03204D403EB4113D5
:1005D00093F82A01704701F07F0103EB411393F870
:1005E0002A00704708B5D0F8C00200F039FA032895
:1005F00096BF024B0220185C08BD00BF204A0008CD
:1006000008B5D0F8C00200F0B3FA032896BF024B39
:100610000220185C08BD00BF204A000808B5D0F8C9
:10062000C00200F08FFA032896BF024B0220185C2C
:1006300008BD00BF204A0008004870472C02002077
:10064000704700BF704700BF122301480B807047FE
:100650001C000020042301480B807047300000205C
:100660000023F0B41F464E1C050F092DECB204F117
:1006700030058ABF373401F8135001F8134006F8EB
:10068000137001339A424FEA0010EDD1F0BC70476D
:100690001A220B480B4B00681B680A80C01801D156
:1006A0000948704710B5094B08221C680849FFF734
:1006B000D7FF204604220749FFF7D2FF024810BDAA
:1006C000E8F7FF1FF0F7FF1F34000020ECF7FF1FD3
:1006D000360000204600002010B5044C0A460448AD
:1006E000214603F07DFC204610BD00BF24160020EB
:1006F000504A000810B5044C0A460448214603F04D
:100700006FFC204610BD00BF24160020644A00087C
:1007100010B5044C0A460448214603F061FC20460B
:1007200010BD00BF24160020244A000810B5044C58
:100730000A460448214603F053FC204610BD00BF82
:1007400024160020384A0008002070470020704717
:1007500000207047704700BFFEE700BFFEE700BF04
:10076000FEE700BFFEE700BF704700BF014800F092
:1007700015BA00BFB8130020014801F0CFBB00BF7D
:1007800024180020114B10B5986982B040F0010088
:1007900098619C69002204F001040094009CDC69CB
:1007A0000F2144F08054DC61DB696FF0010003F03D
:1007B00080530193019B02F0FFF9054A536823F02F
:1007C000E06343F00073536002B010BD00100240BC
:1007D00000000140002370B50168154A86B09142BF
:1007E000CDE90233CDE9043301D006B070BDC0209D
:1007F0000322122601250F4C02A9A36943F0080326
:10080000A361A369029003F0080300930A48009BC8
:10081000CDE90365059202F0C3F8E36943F40013E0
:10082000E361E36903F400130193019B06B070BD1B
:100830000054004000100240000C014070B500243C
:1008400002681A4B86B09A42CDE90244CDE90444CD
:1008500001D006B070BD4FF400710226032503F5E8
:1008600058439A69124842F480429A619A6902F4A4
:1008700080420092009A9A6942F004029A619B6950
:10088000029103F00403019302A9019B03960595CD
:1008900002F086F84FF4806302A90548CDE90344CD
:1008A000029302F07DF806B070BD00BF0038014031
:1008B0000008014010B5014688B00022192002F05E
:1008C0007BF9192002F0AEF9154B01A99A6903A82A
:1008D00042F400629A619B69124C03F40063029334
:1008E000029B01F0B7FF01F0A5FF40F2E7310022C3
:1008F0000D4BE160A3FB00130C499B0C013B204610
:10090000C4E900132261A26001F0EAFB10B10120EA
:1009100008B010BD204601F0E9FA08B010BD00BFD4
:10092000001002402418002083DE1B43002C0140ED
:100930002DE9F04186B0002874D090F829320446A1
:1009400003F0FF02002B68D00323264684F82932E7
:10095000206800F00DFC56F810CB6D4637460FCFDF
:100960000FC53B68271D2B60604697E80E0000F01E
:10097000EDFB054638B101250223284684F82932CB
:1009800006B0BDE8F0810146206800F0FBFB60681E
:1009900050B32B464FF00108294604EB431203F1F4
:1009A000010E82F82830D3865FFA8EF3834282F8F4
:1009B000298082F82B10C2E90E111164EDD30022B8
:1009C00004EB451305F1010C05F10A0183F82851E8
:1009D0005FFA8CF54901854283F8292183F82B21A0
:1009E000C3E94E226250EBD30FCE6D460FC533687C
:1009F0002B6097E80E00206800F0C6FB0546002833
:100A0000B9D1012384F82400206884F8293200F049
:100A1000B3FF284606B0BDE8F08180F82822FFF732
:100A2000EFFC91E70125284606B0BDE8F08100BF44
:100A300090F82832012B10D0012110B5044680F81F
:100A40002812FFF7FFFD206800F094FF206800F0F7
:100A500085FB002084F8280210BD0220704700BFEB
:100A600090F82822012A0DD010B50446012284F8FE
:100A7000241080F82822006800F076FF002084F817
:100A8000280210BD02207047F8B501F007050906DD
:100A90004FEA451420D40027061904F5947186F80E
:100AA000297101444C780D700A61CB7094B9022B06
:100AB00004BF00230B7190F82832012B14D00123BE
:100AC000044680F82832006800F078FB002084F8A3
:100AD0002802F8BDCD81EAE70127061904F12801B3
:100AE00086F829700144DDE70220F8BD01F0070215
:100AF000090610B54FEA421316D40024C11803F5B5
:100B0000947381F82941C1180A7090F82832012B9A
:100B100015D00123044680F82832006800F0AEFCAE
:100B2000002084F8280210BD0124C118283381F860
:100B30002940C1180A7090F82832012BE9D102200F
:100B400010BD00BF70B5002601F007014D0144192A
:100B500005F5947584F82811C4E94F2341190068FC
:100B6000C4F8446184F8296100F04AFD304670BD44
:100B7000F8B50026012701F007014D014419283579
:100B800084F82810C4E90F234119006884F82970FB
:100B9000666400F035FD3046F8BD00BF2DE9F84F22
:100BA0000446006800F0EAFE0104226800F1BC80FF
:100BB000104600F0E3FE460500F19880206800F042
:100BC000DDFE10F4804F206807D0B0F8443023F4E5
:100BD00080431B041B0CA0F8443000F0CFFE10F43F
:100BE000005F20681DD100F0C9FEC50425D420682F
:100BF00000F0C4FE000541D4206800F0BFFE82056D
:100C000067D4206800F0BAFEC30508D52268B2F8A0
:100C1000443023F480731B041B0CA2F84430BDE85D
:100C2000F88FB0F8443023F400531B041B0CA0F8D9
:100C3000443000F0A3FEC504D9D522682046B2F89E
:100C4000403023F004031B041B0CA2F84030B2F820
:100C5000403023F008031B041B0CA2F84030FFF7C0
:100C60002BFC2068B0F8443023F480531B041B0C89
:100C7000A0F8443000F082FE0005BDD52368B3F82B
:100C80004020184642F00802A3F84020B3F8442060
:100C900022F400621204120CA3F84420B3F840209E
:100CA00042F00402A3F8402000F068FEC10408D519
:100CB0002268B2F8443023F480531B041B0CA2F8C2
:100CC00044302046FFF7E8FB206800F057FE82051D
:100CD00097D522682046B2F8443023F400731B04F1
:100CE0001B0CA2F84430FFF7C1FB8AE722682046BC
:100CF000B2F8443023F480631B041B0CA2F8443088
:100D0000FFF7B8FB94F82832012B3FF457AF0025CA
:100D1000012384F8245084F828322946206800F002
:100D200023FE84F8285249E7DFF800A3DFF800B378
:100D3000B2F844301F047FF53BAFB2F8441089B2DB
:100D400011F00F0654D111F01001138800F0B68095
:100D50009BB213F4006540F0DE801B04E8D540F63A
:100D60008F7311880B4043F080031380B2F850302A
:100D700094F8281103EBC10302EB4303B3F80C34DE
:100D8000C3F30903C4F844319BB1D4F83C1181B1D9
:100D90001046B4F82E2100F0F7FDD4F83C31D4F819
:100DA000442129461344C4F83C312046FFF74EFB4A
:100DB0002268B2F85030D4F838119BB202F20C40DD
:100DC000002900F0FF803E2900F21B814D08CF076B
:100DD00048BF0135AD02ADB2C5521188914B0B40F1
:100DE00083F4405343F4004343F0800313809FE7B0
:100DF00032F82670BFB2390425D43B0698D532F8B4
:100E0000263004EB46110AEA030343F4004322F8B8
:100E10002630B2F8503091F82800CD6B03EBC003B8
:100E200002EB4302B2F804040B6CC0F309002A1869
:100E30004864CA63204691F82810002B67D1FFF759
:100E40000DFB226874E740F68F7332F826107501A7
:100E50000B4043F0800322F8263004EB050999F893
:100E6000343102F58060002B77D1B2F8503099F818
:100E70002811063303EBC10330F81380C8F30908C7
:100E8000B8F1000F40F0AC802544D5F84411D5E905
:100E90004F2341444244C5F84411C5F83C21002B7E
:100EA00000F0A780D5F8380195F82811804580F02A
:100EB000A3802046FFF7CAFA22689EE70AEA0303E6
:100EC00043F400431380B2F8503094F82800E56BE7
:100ED00003EBC00302EB4302B2F804342046C3F331
:100EE00009031D446364E563FFF7B8FA94F82430FE
:100EF0007BB1236C2268002B7FF41AAF94F8241086
:100F000041F08001A2F84C1084F8243010E7FFF77C
:100F10002FFE22680CE7B2F8503094F828111046E2
:100F200003EBC10302EB4302B2F80C3404F50C717D
:100F3000C3F30903B4F82E21C4F8443100F024FDB2
:100F400040F68F732268204611880B4043F08003DF
:100F50001380FFF775FA2268EAE699F8283132F82B
:100F600023C002EB83011CF4804FB2F850C04FEA5B
:100F7000C303634410D1063330F81380C8F3090863
:100F8000B8F1000F48D10B880BEA030343F4004388
:100F900043F0C0030B8077E7023330F81380C8F3C7
:100FA0000908B8F1000FEED043461046B9F83021D9
:100FB000D9F83C1100F0E8FC99F82831216801EBE0
:100FC0008301E0E7C15A21F4F8410904090CC15238
:100FD000C15A6FEA41416FEA514189B2C152FCE600
:100FE00010464346B9F82E21D9F83C1100F0CCFC4C
:100FF0004AE795F828115CE72046FFF7A3FD226831
:10100000FBE64D09CE06084908BF05F1FF3541EA68
:101010008525ADB2C552E0E610464346B9F8322107
:10102000C6E700BF8FBFFFFF0080FFFF0F8FFFFFEE
:101030008F8FFFFF38B5436801F007059D422CD81C
:101040000B0619D400244901431883F829410123D0
:1010500001F5947281180D708B7090F828229A42D5
:1010600019D0044680F82832006800F009FCB5B1B8
:10107000002084F8280238BD01226B0103F1280109
:10108000034483F82920012301440D708B7090F8EC
:1010900028229A42E5D1022038BD012038BD04F54E
:1010A0000C71206800F06EFCE2E700BF38B54368C1
:1010B00001F00F029A422ED801F0070209064FEA0A
:1010C000421318D40025C41884F82951002503F5CB
:1010D000947101440A708D7090F82832012B18D059
:1010E0000123044680F82832006800F0EBFB84F806
:1010F0002852284638BD0125C41884F829500025F7
:1011000003F1280101440A708D7090F82832012BF8
:10111000E6D1022038BD012038BD00BF11F0800F9C
:101120000FD001F0070100EB4110283099B21AB935
:101130000273C18000207047012283600273002087
:10114000704700EB411000F59470EFE784B001A800
:1011500080E80E0004B00020704700BF0246B0F8DF
:101160004030002043F43F43A2F84030704700BFB6
:1011700044F2FF030246B0F8401000200B40A2F8F2
:10118000403070470020704784B070B40446012599
:101190000020A4F84050A4F84000A4F84400A4F8AB
:1011A0005000B4F8406004AD46F43F46A4F84060F7
:1011B00085E80E0070BC04B0704700BF70B40D78B5
:1011C000034630F82540A84AC8782240032800F298
:1011D0004881DFE800F0403C040242F4C062002095
:1011E00048F28004224323F825200D789F4E33F8DF
:1011F000252032402A43224323F825200A7B6ABB5C
:10120000CC880A784D786408640003EB0212002D44
:1012100000F0CC80B3F850502A44A2F800440A7879
:1012200033F8225003EB82046D0600F10281CB7883
:101230002288012B8E4B03EA020318BF83F02003A0
:1012400043F4004343F08003238070BC704742F4B2
:1012500080620020C4E742F40072C1E70C7833F8E2
:101260002420324042F4014242F0800223F824203C
:101270000A780C89B3F8505003EB0212640802F5A7
:1012800080626400ADB254530A784C89B3F8505070
:1012900003EB0212640802F581626400ADB254539C
:1012A0000C784A7833F82450002A3BD16D0403EBC4
:1012B00084020BD533F82420164046F4404646F00D
:1012C000800623F824600A7803EB820214886606FD
:1012D0000AD51588654C2C4044F4004444F0C00401
:1012E00014800A7803EB820248F2800516885F4C6E
:1012F000344044F4004444F0C00414800C785D4A47
:1013000033F82460324082F440522A4323F82420E8
:101310000978574A33F8214022402A4323F82120F4
:1013200070BC70476D0403EB84020BD533F82420A6
:10133000164046F4404646F0800623F824600A78BA
:1013400003EB8202148864060AD51588474C2C40AA
:1013500044F4004444F0C00414800A7803EB820291
:101360001588424C2C4044F4404444F080041480DE
:10137000CA780C78012A33F824503D4A02EA050263
:1013800018BF82F0200242F4004242F0800223F8AB
:1013900024200978374A33F82140224042F40042A1
:1013A00042F0800223F8212070BC7047B3F85060EF
:1013B0000D693244A2F808440A78B3F8504003EBB0
:1013C000021202F20C42A4B245B33E2D3ED86E0882
:1013D000ED0748BF0136B602B6B216530C7833F8A3
:1013E000245003EB84026E040CD533F824501F4ABA
:1013F0002A4042F4404242F0800223F824200A7836
:1014000003EB820211881B4B70BC0B4083F44053EA
:1014100043F4004343F0800313807047155B25F4C9
:10142000F8452D042D0C1553155B45F40045155357
:10143000D4E733F82240264046F4004646F0C00682
:1014400023F822600C7803EB8404F0E66E09ED06C5
:10145000094D08BF06F1FF3645EA8625ADB21553A2
:10146000BCE70120BCE600BF8F89FFFF8F8FFFFF25
:10147000BF8FFFFF8FBFFFFF0080FFFF30B40A78F0
:101480000D7B00EB82034C7865BB7CB130F82240C9
:10149000640600F1A18030BC1988564A00200A4039
:1014A00042F4004242F080021A80704730F8224035
:1014B00065040CD530F822404F4B234043F44043A1
:1014C00043F0800320F822300B7800EB8303198867
:1014D0004A4A002030BC0A4042F4004242F08002F6
:1014E0001A807047002C3BD130F8224064040CD5A0
:1014F00030F82240404B234043F4404343F0800304
:1015000020F822300B7800EB83031A8855060AD5A1
:101510001C88394A224042F4004242F0C0021A803C
:101520000B7800EB830348F280041D88324A2A407E
:1015300042F4004242F0C0021A800A782F4B30F881
:1015400022502B40234320F822300A78294B30F8D0
:1015500022100B401C4320F82240002030BC704772
:1015600030F8224064040CD530F82240224B23404E
:1015700043F4404343F0800320F822300B7800EB23
:1015800083031A8852060AD51C881B4A224042F45B
:10159000004242F0C0021A800B7800EB830348F24D
:1015A00080041D88144A2A4042F4404242F08002DE
:1015B0001A800A780F4B30F822502B40234320F832
:1015C00022300A780D4B30F822100B401C4320F8D3
:1015D0002240002030BC704730F82240064B2340A8
:1015E00043F4004343F0C00320F822300B7800EBB3
:1015F000830350E7BF8FFFFF8F8FFFFF8FBFFFFF7A
:10160000F0B44C788B69012C0A695AD0934298BF88
:1016100000260D7B88BF9E1A8E6188BF13460A780C
:1016200015BBB0F8505000F20C4412012C44002BB2
:1016300000F0A6803E2B00F2C5805D08DE0748BFA3
:101640000135AD02ADB2A5520A7830F82210884BB0
:10165000F0BC0B4083F4405343F4004343F0800359
:1016600020F8223000207047002CEED1B0F8505006
:1016700000F2044412012C44002B40F0AF80A55A24
:101680007C4E25F4F8452D042D0CA552A55A45F4A1
:101690000045A5524C78002C40F0DA80B0F850306C
:1016A0000C7800F20C421A442401A35A23F4F843A4
:1016B0001B041B0CA352A35A33439BB2A3520A78B8
:1016C000C3E7934286BF9E1A134600269DB20C7B49
:1016D00001358E616D089EB200F580624B695CB386
:1016E0000C7830F8247024017F06B0F850C053D530
:1016F00000F20C4767443E534C8902EB44023DB173
:1017000002EB850533F8024B22F8044B9542F9D1E0
:101710000C784B7800EB8402002B43D130F8242066
:10172000554B134043F4004343F0C00320F82430EA
:101730000A7800EB820216E0CC8802EB44023DB14D
:1017400003EB450533F8024B9D4222F8044BF9D1D7
:10175000B0F850400A7800F2044312012344D652F4
:101760000A7800EB82021188444B0020F0BC0B4049
:1017700083F0300343F4004343F080031380704749
:10178000A35A23F4F8431B041B0CA352A35A43F49B
:101790000043A3520A7858E700F2044767443E53D7
:1017A0000C89AAE7012BDED130F82420324B1340FC
:1017B00043F4404343F0800320F824300A7800EBE0
:1017C0008202D0E75D09DB062A4B08BF05F1FF3531
:1017D00043EA85239BB2A3520A7836E73E2B1ED9F3
:1017E0005D09AC4613F01F06224F08BF05F1FF3C10
:1017F00047EA8C27BFB2A7524C780A78DCB900F2CE
:101800000C4413012246B0F850703A4406B9013D29
:10181000184C44EA8525ADB2D5520A7815E75D0823
:101820002E4613F0010718BF6E1CB602B6B2A652C0
:101830004C780A7874B1012C7FF407AFB0F850509F
:1018400000F20C4412019BB22C44A3520A78FCE62D
:101850000A78F0E7B0F8506000F20C441301344409
:1018600007B10135AD02ADB2E5520A78EDE600BF31
:101870008FBFFFFF0080FFFF8F8FFFFFBF8FFFFF36
:101880004B780A7830F822105BB10C4B0B4083F098
:10189000100343F4004343F0800320F8223000207B
:1018A0007047074B0B4083F4805343F4004343F0ED
:1018B000800320F822300020704700BFBF8FFFFF59
:1018C0008FBFFFFF0B7B002B37D110B40B784C7808
:1018D00000EB830204B330F82320520609D530F818
:1018E00023401E4A224042F4004242F0C00220F847
:1018F0002320CB78012B1DD00A78194B30F8221009
:1019000010BC0B4083F0200343F4004343F08003FA
:1019100020F822300020704730F8234064040ED4B1
:101920001188104B0B4083F4405343F4004343F0C1
:1019300080031380002010BC70470020704730F8EF
:101940002340064A224042F4404242F0800220F8FE
:1019500023200A7800EB8202E2E700BF8F8FFFFFAF
:10196000BF8FFFFF8FBFFFFF11B98023A0F84C305E
:10197000002070470020704700207047B0F84400F6
:10198000704700BF0020704700EB4202580802F584
:1019900080621AD0F0B4174606468D1C37F8044B07
:1019A000013EA4B24FEA142C05F8024C05F801CC14
:1019B00005F10205F2D1F0BC01EB400102EB80021F
:1019C000D80744BF13880B707047DB0744BF1388E8
:1019D0000B7070472DE9F04107460D4616469846B4
:1019E0003C6804E06069420509D4731C1ED160693B
:1019F00025EA000080B20028F4D1BDE8F081002281
:101A00006FF480602021236843F4007323606061D9
:101A10003A6387F83D1087F83E203B6C87F83C20FE
:101A200043F004033B640120BDE8F08100F006FCB4
:101A3000A0EB0800B04201D8002ED1D10022202313
:101A40003A6387F83D3087F83E203B6C87F83C20AE
:101A500043F020033B640120CFE700BF30B50446CC
:101A600083B02068436913F0800330D145696D0568
:101A70001BD44B1CF6D0CDE9001200F0DFFB019A1D
:101A80000099801A884201D80029EAD10022202337
:101A9000226384F83D3084F83E20236C84F83C2097
:101AA00043F02003236401200FE06FF480612022C3
:101AB00041610120236384F83D2084F83E30226C8C
:101AC00084F83C3042F00402226403B030BD0020B0
:101AD00003B030BD2DE9F0410C46064617461D46C1
:101AE0004FEA1148336801E06A1C0FD1B8F1010FC9
:101AF0000CBF5869986924EA000080B2B0FA80F0FF
:101B00004009B842F0D00020BDE8F08100F096FB1B
:101B1000069BC01AA84201D8002DE3D10022202341
:101B2000326386F83D3086F83E20336C86F83C20E0
:101B300043F0200333640120E6E700BF30B50446DC
:101B400083B02068436913F0040330D145696D0503
:101B50001BD44B1CF6D0CDE9001200F06FFB019AAC
:101B60000099801A884201D80029EAD10022202356
:101B7000226384F83D3084F83E20236C84F83C20B6
:101B800043F02003236401200FE06FF480612022E2
:101B900041610120236384F83D2084F83E30226CAB
:101BA00084F83C3042F00402226403B030BD0020CF
:101BB00003B030BD002800F0AA80F8B590F83D30A1
:101BC000044603F0FF02002B00F08A8024232268E1
:101BD00084F83D30136823F00103136000F01AFE0F
:101BE00062684C4B9A424BD84B4B984276D9431E75
:101BF0005200B3FBF2F240F6FC7548492368A1FBA2
:101C000000105968800C21F03F0101435960196AA6
:101C1000013021F03F0108431862D969501C21F4BA
:101C20004F41284221F0FF015FD1042000252026EA
:101C30000843D8611968D4E9072021F0C0010243A4
:101C40000A431A609968D4E9030221F4034121F0A0
:101C5000FF0102430A439A60D968D4E9052021F0C4
:101C6000FF0102430A43DA601A68284642F0010283
:101C70001A60256484F83D60256384F83E50F8BD01
:101C8000274B98422AD94FF49671244D2368A5FB1F
:101C90000065AD0C01FB05F15E68224F26F03F06A2
:101CA000A7FB017135435D601D6A890925F03F0579
:101CB000013129431962D969A56821F44F410138DE
:101CC00021F0FF01A5B902EB4202B0FBF2F00130B6
:101CD000C0F30B00C8B140F40040A7E70120F8BDF5
:101CE00080F83C20FEF776FD70E7C0F30B009DE71F
:101CF00002EB820202EB8202B0FBF2F00130C0F391
:101D00000B0010B140F4404090E701208EE7012025
:101D1000704700BFA08601007F841E0083DE1B4346
:101D2000FF083D00D34D62102DE9F041044684B018
:101D300098460E46174600F081FA94F83D30202B65
:101D400004D00226304604B0BDE8F081054600907C
:101D50001923012260492046FFF7BCFE0028F0D17C
:101D600094F83C30012BECD00122236884F83C200D
:101D70001A68D20740F1928000214FF0210C102008
:101D80001A6822F400621A60544A84F83DC084F84C
:101D90003E002164A4F82A80618DE262E26A6762F3
:101DA000082A218507D0012A05D012F5803F02D0EC
:101DB000226B122A03D11A6842F480721A600095CD
:101DC0000A9B00224FF001112046FFF783FE0028F6
:101DD0005FD123692268B3F5804F64D106F0FE0617
:101DE00016612B460A9A3E492046FFF7F3FD064648
:101DF00000284ED1236803905A6903929B6903938C
:101E0000039B33E02A460A992046FFF727FE002865
:101E10003CD1D4F824C02768E04618F8013BB4F858
:101E200028E03B61638DC4F82480013B9BB263854D
:101E3000D7F814800EF1FF339BB218F0040F2A4636
:101E40000A99204623850ED06BB19CF80130AEF183
:101E5000020E3B61678D0CF10203013FBFB2A4F893
:101E600028E063626785FFF769FE78B9238D002B50
:101E7000C8D1202021680A6842F400720A6084F800
:101E80003D0084F83C3084F83E305BE7236C042B43
:101E90001BD00126304604B0BDE8F0811A6842F03C
:101EA00001021A6068E7F31103F0060343F0F00340
:101EB00013610C492B460A9A2046FFF78BFD002838
:101EC000E7D12368F6B21E618BE72268012613680A
:101ED00043F40073136035E7020010000000FFFFB9
:101EE0000200010008000100704700BF0368DA68C3
:101EF00042F00102DA609A6802F00702062A03D073
:101F00001A6842F001021A6000207047704700BF53
:101F1000704700BF704700BF704700BF036810B52F
:101F20001A690446910702D5DA6892075FD41A69E4
:101F3000500702D5DA68510746D41A69120702D54C
:101F4000DA6810072ED41A69D20602D5DA68D006EC
:101F500018D41A69D10702D5DA68D2075DD41A6994
:101F6000100602D5DA6811065FD41A69520602D546
:101F7000DA68500661D41A69910602D5DA689206C9
:101F800043D410BD6FF0100108221961DB692046AF
:101F900013F4407F227764D0FFF7BAFF0022236852
:101FA0002277D6E76FF0080104221961DB69204629
:101FB0009907227752D1FFF7A9FF2046FFF7AAFF22
:101FC000002223682277BEE76FF004010222196124
:101FD0009B69204613F4407F22773CD1FFF796FFA0
:101FE0002046FFF797FF002223682277A5E76FF0CE
:101FF0000201012219619B6902779B0725D0FFF737
:1020000087FF00222368227791E76FF020022046A5
:10201000BDE810401A6100F07FB86FF00102204661
:102020001A61FEF7A7F9236899E76FF0800220464E
:102030001A6100F073F8236897E76FF040022046BA
:102040001A61FFF769FF236895E7FFF75FFF2046F6
:10205000FFF760FFD5E7FFF75BFFC4E7FFF758FF27
:10206000AEE7FFF753FF2046FFF754FF96E700BFA8
:1020700070B41A4E0368B0428A684D690C6819D072
:10208000B0F1804F0DD0A6F59436B04209D023F0C0
:1020900080032B4303600123C2628462436170BCEE
:1020A00070474E6823F070033343C96823F44073CC
:1020B0000B43ECE74E6823F070033343CE6823F400
:1020C0004073334323F080032B430360C262846276
:1020D0000B6970BC0363012343617047002C01400E
:1020E000C0B190F83D3010B503F0FF02044663B173
:1020F0002146022351F8040B84F83D30FFF7B8FF66
:102100000123002084F83D3010BD80F83C20FFF70B
:10211000EBFEEDE701207047704700BF704700BF3E
:1021200038B504460368C0681969A26821F44051B3
:1021300001431961D968D4E9045021F4B0512A430C
:1021400021F00C0102430A43DA605A69A06912497E
:1021500022F4407202438B425A611AD000F05AFBBB
:10216000636800EB80009B0000EB8000B0FBF3F0A5
:1021700064230A492468A1FB0052520903FB12039D
:102180001B013233A1FB0313120102EB5313A360B3
:1021900038BD00F04FFBE3E7003801401F85EB51ED
:1021A00060B338B590F83930044603F0FF0203B34A
:1021B0002423226884F83930D368204623F400535E
:1021C000D360FFF7ADFF00252021236828461A6958
:1021D00022F490421A615A6922F02A025A61DA689E
:1021E00042F40052DA60E56384F8391084F83A105A
:1021F00038BD80F83820FEF721FBD9E70120704771
:10220000074A08B51368032043F01003136000F079
:10221000C1FC0020FEF74EFBFEF7B4FA002008BD1B
:1022200000200240034A044B11681B780B441360E2
:10223000704700BF64180020BC000020014B1868E4
:10224000704700BF64180020002800F0C4812DE909
:10225000F041036882B0DD07044635D5A6494A68D7
:1022600002F00C02042A00F0EF804A6802F00C022F
:10227000082A00F0E5806368B3F5803F10D0002B9A
:1022800000F00D81B3F5A02F00F090819A4B1A68F1
:1022900022F480321A601A6822F480221A6004E064
:1022A000954A136843F480331360FFF7C7FF924DDC
:1022B000064605E0FFF7C2FF801B642800F2EB80B2
:1022C0002B689A03F6D523689F0728D58A4A516858
:1022D00011F00C0F00F08E80516801F00C010829FC
:1022E00000F084802369002B00F025810122834BBC
:1022F000814D1A60FFF7A2FF064605E0FFF79EFF3B
:10230000801B022800F2C7802B689807F6D52B683F
:10231000626923F0F80343EAC2032B6023681A07BB
:102320001FD45D0741D5744BDA69D0007DD50025F7
:10233000734B1A68D10540F19D80E368012B00F0D2
:102340000B81002B00F0C580052B6B4B1A6A00F047
:102350003A8122F001021A621A6A22F004021A6219
:10236000FFE0A369002B50D00122664B624D1A603A
:10237000FFF764FF064605E0FFF760FF801B0228B9
:1023800000F289806B6A9B07F6D55F4B5F4A1B683A
:10239000A2FB03235B0A019300BF019B5A1E01921B
:1023A000002BF9D123685D07BDD4E069D0B1524D4F
:1023B0006A6802F00C02082A00F0E78002284FF059
:1023C0000001534A00F009811160FFF737FF2C46E6
:1023D000054604E0FFF732FF401B02285BD8236864
:1023E0009B01F7D4002002B0BDE8F0815268D6030B
:1023F0003FF578AF404A126895072FD52269012A28
:102400002CD0012002B0BDE8F0813E4A3A4D136065
:10241000FFF714FF064604E0FFF710FF801B0228B9
:1024200039D86B6A9F07F7D4BCE7DA69012542F017
:102430008052DA61DB6903F080530093009B77E7F9
:102440004A68D0037FF517AF2B4A126891037FF5D6
:102450003BAF6268002A7FF437AFD2E72649606954
:102460000A6822F0F80242EAC0020A601A077FF501
:1024700058AF76E71A681E4642F480721A60FFF77A
:10248000DDFE07463368DA053FF557AFFFF7D6FEA6
:10249000C01B6428F6D9032002B0BDE8F08103F127
:1024A000804303F504331A681D4622F480321A6013
:1024B0001A6822F480221A60FFF7C0FE064604E084
:1024C000FFF7BCFE801B6428E5D82B689B03F7D47C
:1024D000F9E603F1804303F504331A6A1E4622F03D
:1024E00001021A621A6A41F2883822F004021A6262
:1024F000FFF7A4FE074612E000100240000042422F
:102500000070004080044242C4000020D34D62109D
:1025100060004242FFF792FEC01B4045BBD8336AC1
:102520009807F7D4002D3FF440AF454AD36923F014
:102530008053D36139E7434A414D1360FFF77EFE74
:10254000064604E0FFF77AFE801B0228A3D82B681A
:102550009907F7D42368E2E6394A136A43F0010386
:102560001362FFF76BFE364E804641F2883705E076
:10257000FFF764FEA0EB0800B8428CD8336A9B07D3
:10258000F6D5002D3FF411AFCFE701283FF42BAF74
:102590006B68226A03F4803191427FF432AF606A43
:1025A00003F47013181A18BF01201CE703F18043CD
:1025B000A3F53C331A6842F480221A601A6842F488
:1025C00080321A6071E642F004021A621A6A42F01E
:1025D00001021A62C5E7012070471160FFF72EFE65
:1025E000064605E0FFF72AFE801B02283FF653AFA0
:1025F0002B689901F6D4226AB2F5803F05D16B6849
:10260000A16823F400330B436B6001250C4B606A17
:102610005968024321F474110B480A435A6005605B
:102620001C46FFF70BFE054605E0FFF707FE401BC3
:1026300002283FF630AF23689A01F6D5D2E600BFF4
:1026400000100240000042426000424240F201227B
:1026500010B41A4B87B006ACADF804200FCB04E9D8
:102660000F0017494A6802F00C03042B1BD0082BFB
:1026700015D1C2F38343234413F8104CD30316D56A
:102680004B68104806AA00FB04F0C3F34043134410
:1026900013F8143CB0FBF3F007B010BC70470A48C5
:1026A00007B010BC7047074807B010BC7047074818
:1026B00000FB04F007B010BC704700BF044A0008DC
:1026C000001002400024F40000127A0000093D00CE
:1026D00078B14B4A136803F007038B420BD213689F
:1026E00023F007030B431360136803F007038B42C7
:1026F00001D00120704703682DE9F0419C0714D5F3
:102700005A0704D53F4C626842F4E06262601F07DA
:1027100004D53C4C626842F460526260394C856872
:10272000626822F0F0022A436260DE0780460C46AF
:1027300021D54268334B012A1B685CD0022A57D04E
:10274000990728D52F4D41F288376B6823F0030392
:1027500013436B60FFF772FD064604E0FFF76EFD62
:10276000801BB8424AD86B68D8F8042003F00C03E9
:10277000B3EB820FF2D1224A136803F00703A3429E
:102780000CD9136823F0070323431360136803F085
:102790000703A34202D00120BDE8F081D8F8003041
:1027A0005A0707D51749D8F80C004A6822F4E062A6
:1027B00002434A601B0708D5124AD8F81010536824
:1027C00023F4605343EAC1035360FFF73FFF0D4B0F
:1027D0000D4A5B680D49C3F30313D35C0C4A20FA1E
:1027E00003F308681360FEF765F80020BDE8F08188
:1027F0009801A7D4CFE79D03A4D4CCE70320CBE76F
:1028000000200240001002407C4A0008C000002066
:10281000C4000020044B05495B68054AC3F302234A
:10282000CB5C1068D8407047001002408C4A00080A
:10283000C4000020044B05495B68054AC3F3C2236A
:10284000CB5C1068D8407047001002408C4A0008EA
:10285000C40000200F220D4B02605A6810B402F031
:10286000030242605A680A4C02F0F00282605A6821
:1028700002F4E062C2605B68DB0803F4E0630361BA
:10288000236810BC03F007030B6070470010024080
:10289000002002402DE9F0410446006882B0C507DF
:1028A00027D53C4BDA69D1003AD53B4B00251A6855
:1028B000D20543D5374960680A6A12F440720FD0D6
:1028C00000F4407393420BD0012700260B6A334A71
:1028D00023F44070176016600862D80749D4606816
:1028E0002C4A136A23F44073034313622068002DBB
:1028F00038D1830706D5274AA168536823F440439B
:102900000B43536010F0100007D00020214AE1680B
:10291000536823F480030B43536002B0BDE8F08199
:10292000DA69012542F08052DA61DB6903F08053F5
:102930000193019B184B1A68D205BBD41A681E4636
:1029400042F480721A60FFF779FC07463368DB05B2
:10295000B0D4FFF773FCC01B6428F7D9032002B082
:10296000BDE8F081D36923F08053D3618307C9D5D3
:10297000C1E70E46FFF762FC41F288378046336AB2
:102980009A07ACD4FFF75AFCA0EB0800B842F6D97E
:10299000E4E700BF001002400070004040044242E3
:1029A0002DE9F04F0D6885B0002D00F08A804FF0C2
:1029B0000009DFF8C0C14B46694FDFF8BC81DFF882
:1029C000BCE103E0013335FA03F27AD001229A40E8
:1029D00002EA0506B242F5D14C68122C00F0AB8039
:1029E0007FD8022C00F0A3806ED9032C00F09C80CD
:1029F000112C02D1CA6802F10409FF2E6BD882465D
:102A000002689C000F2505FA04FB22EA0B0209FA72
:102A100004F42243CAF800204C68E20040F18280AE
:102A2000DCF818A023F003024AF0010ACCF818A041
:102A3000DCF818A002F180420AF0010ACDF80CA0DF
:102A400002F5803203F0030ADDF80CB04FEA8A0A7F
:102A5000D2F808B005FA0AF52BEA05050195414DB3
:102A6000A84210D005F58065A84268D03E4DA84226
:102A70000CBF4FF0020B4FF0030B019D0BFA0AFA4B
:102A800045EA0A050195019D95603A68E5034CBF4A
:102A90003243B2433A607A68A5034CBF3243B24333
:102AA0007A60BA68E5024CBF3243B243BA60A4020E
:102AB000FA6834D51643FE600D68013335FA03F227
:102AC00084D105B0BDE8F08FC4B1012C95D1FF2EA3
:102AD000D1F80C9093D99C004268203C00F1040A84
:102AE00090E744450AD00ED9744507D01F4DAC423B
:102AF00004D0A5F58015AC427FF47FAF8C683CBB59
:102B00004FF0040979E71A4DAC42F7D005F580354E
:102B1000AC427FF472AF8C68002CF1D018E022EA4E
:102B20000606FE600D684DE74FF0000965E7CA68CC
:102B300002F1080961E7CA6802F10C095DE74FF08C
:102B4000010B019D0BFA0AFA45EA0A0501959AE77D
:102B5000012C0CBF026142614FF008094DE700BF34
:102B60000004014000080140001001400000321044
:102B70000000111000100240000021100000311070
:102B80008368194214BF01200020704702B909046C
:102B9000016170474FF6FF01064A0002D36800F456
:102BA000E0600B40184340F0BF6040F40030D0605C
:102BB000704700BF00ED00E0184B30B4DC68C4F390
:102BC0000224C4F10705042D04F1040328BF0425E1
:102BD000062B18D94FF0FF33033CA34022EA03022F
:102BE0004FF0FF33AB4021EA0303A34013431B0123
:102BF0000028DBB20ADB00F1604000F5614080F89C
:102C0000003330BC704700221446E9E7044A00F064
:102C10000F000244137630BC704700BF00ED00E0A7
:102C2000FCEC00E0002807DB012300F01F01034A51
:102C30008B40400942F82030704700BF00E100E0BF
:102C400030B44FF41F054FF000640E4B0E4A196864
:102C50000E4841F00101196059680A405A601A682B
:102C600022F0847222F480321A601A6822F48022E0
:102C70001A605A6822F4FE025A609D60846030BC7B
:102C8000704700BF001002400000FFF800ED00E0B8
:102C90004FF0FF31002200F10803816002604360C1
:102CA000C0E90333704700BF00230361704700BFD2
:102CB000436810B49C6802688C609C6801324B6069
:102CC0006160996010BC08610260704730B40D68A3
:102CD0006B1C11D000F1080200E01A4653681C6812
:102CE000AC42FAD904684B60013499608A60516043
:102CF0000861046030BC704702695368F2E700BFA6
:102D0000036910B4D0E901125C688A605160002147
:102D1000844208BF5A601A680161013A1A60186853
:102D200010BC704780B54FF0805A154C154F164EA9
:102D3000DFF85880DFF8589014E000F0B3FCFB682F
:102D4000DD68281DFFF7DCFF3368013B3360236833
:102D5000013B236000F0C8FC286B00F017FC2846FC
:102D600000F014FC2368002BE7D1D8F80030012BC9
:102D7000F8D9C9F800A0BFF34F8FBFF36F8FF1E709
:102D8000E402002058030020E0020020540200204A
:102D900004ED00E0034A044B1268D268D26852681E
:102DA0001A6070474C02002024030020F8B51B4B2A
:102DB0001B4E1C6833680546181D0F46FFF7A0FF21
:102DC00040B9012233681749D86A0B68824023EA68
:102DD00002030B606B1C17D0336864195C6007D367
:102DE000114B18683168BDE8F8400431FFF76EBF39
:102DF0000E4B186831680431FFF768FF0C4B1A68F6
:102E0000A24288BF1C60F8BD002FE5D03168094898
:102E10000431BDE8F840FFF74BBF00BF6C03002052
:102E200048020020F4020020500200204C02002042
:102E300024030020440300202DE9F84F4FEA8209C3
:102E4000074648460E46984600F00CFB00287FD007
:102E50000546542000F006FB044600287CD0731E73
:102E600005630F3600F1330113F8012F01F8012F2C
:102E70000AB1B342F8D10A9E4FF0000B062E28BFCC
:102E8000062604F1040AE6626664504684F843B0FC
:102E9000C4F848B0FFF708FF04F11800FFF704FF7B
:102EA000A9F10400C6F107062844C4F84CB0A66195
:102EB00020F0070084F850B024616462424639462D
:102EC00000F0CCFB0B9B206003B11C6000F0EAFB20
:102ED0003E4A3F4E1368013313603368002B41D0E4
:102EE0003C4FE06A3B6823B93368DB6A834298BF92
:102EF00034600125DFF81CE105FA00F2DEF800304D
:102F0000DFF814C11A43344B00EB800003EB800060
:102F1000DCF8003051462B44CCF80030CEF80020CD
:102F2000FFF7C6FE00F0E0FB3B6873B13268E36A6E
:102F3000D26A9A4209D24FF08052284B1A60BFF3EE
:102F40004F8FBFF36F8F284600E02846BDE8F88F0B
:102F50004FF0FF30BDE8F88F284600F017FB4FF028
:102F6000FF30F3E734601368012B02D0E06A194F99
:102F7000BFE71948FFF78CFE1948FFF789FE19488B
:102F8000FFF786FE1848FFF783FE1848FFF780FE1C
:102F9000174F1848FFF77CFE174D1848FFF778FECB
:102FA0003846FFF775FE2846FFF772FE1448FFF714
:102FB0006FFE1448FFF76CFE1348FFF769FE134AD3
:102FC000134B1760E06A1D60024F92E7E002002099
:102FD00048020020400300205402002004ED00E0DD
:102FE000680200207C02002090020020A402002041
:102FF000F8020020B80200200C030020CC020020C0
:103000002C03002058030020440300204C02002021
:1030100050020020F4020020F002002030B500240D
:10302000164A83B001920094234680221449154821
:10303000FFF702FF012803D0013016D003B030BDE6
:103040004FF0500383F31188BFF36F8FBFF34F8F9F
:103050004FF0FF350C490D4A0D4B0D6010601C60A0
:1030600003B0BDE8304000F0A9BB4FF0500383F33C
:103070001188BFF36F8FBFF34F8FFEE7200300204F
:10308000944A0008252D0008240300204003002056
:103090006C030020024A136801331360704700BFBD
:1030A000EC0200202DE9F84F464B1B68002B48D15D
:1030B000454B1E6801361E60002E4FD0DFF828B148
:1030C000DBF800200024B2425FD8404D404FDFF8CB
:1030D0001C812DE02A68D268D2F80C90D9F804102F
:1030E00009F1040A8E4267D35046FFF709FED9F86A
:1030F000281009F1180009B1FFF702FE0121354A35
:10310000D9F82C00136801FA00FC00EB800051464E
:1031100007EB80004CEA030CC2F800C0FFF7C8FDC3
:10312000D8F80000D9F82C10C26A914228BF0124B7
:103130002A681268002ACDD14FF0FF32CBF8002068
:1031400026E00024244A136801331360234B1B68D4
:10315000002B0CBF20460120BDE8F88F1B4D2B68CB
:103160001B6803BB1E4B296818681E4A286019603B
:103170001368013313602B681B6803BB4FF0FF32E9
:10318000DFF864B0CBF800209AE7114FDFF85C80DD
:10319000D8F80030DB6A03EB83039B00FB58022B5B
:1031A00028BF0124D2E74FF0500383F31188BFF307
:1031B0006F8FBFF34F8FFEE7CBF80010E8E7FFF704
:1031C000E9FD7BE7EC0200206C0300204C020020AC
:1031D00054020020F4020020E802002070030020C6
:1031E0005002002028030020240300204802002071
:1031F0002DE9F84F384C236843B94FF0500383F35F
:103200001188BFF36F8FBFF34F8FFEE700F04AFACC
:103210002368013B23602468002C49D12F4B1B6895
:10322000002B45D02E4DDFF8D0A02E4EDFF8CC90ED
:10323000DFF8CCB0DAF8003023B30127DAF80C302D
:10324000DC6804F1040804F11800FFF759FD40465A
:10325000FFF756FDE06A326807FA00F300EB8000E2
:103260001343414609EB80003360FFF721FDDBF893
:103270000030E26ADB6A9A42DCD32F60DAF8003071
:10328000002BDAD13CB1184B1B681B6803BB4FF015
:10329000FF32164B1A60164E34683CB10127FFF717
:1032A00001FF00B12F60013CF9D134602B682BB9CC
:1032B000002400F019FA2046BDE8F88F4FF0805244
:1032C0000C4B1A60BFF34F8FBFF36F8F0124F0E7F1
:1032D000FFF760FDDFE700BFEC020020E002002006
:1032E00070030020F40200204C0200202403002080
:1032F000E802002004ED00E02C030020540200202E
:103300004802002008B598B10E4B196841B14FF042
:10331000500383F31188BFF36F8FBFF34F8FFEE726
:103320001A6801321A60FFF741FDFFF761FF38B9F3
:103330004FF08052044B1A60BFF34F8FBFF36F8F73
:1033400008BD00BFEC02002004ED00E0164B1B6836
:103350001BB10122154B1A6070471449144A0B60C7
:103360001368B3FA83F3DBB2C3F11F03114903EB14
:1033700083039B00CA58C81842B94FF0500383F327
:103380001188BFF36F8FBFF34F8FFEE7426808339A
:1033900052680B449A42426008BF5268064B08BF0D
:1033A0004260D2681A607047EC020020700300206F
:1033B000F4020020540200204802002008B5FFF764
:1033C0002DFE002008BD00BF30B5B0F90840024610
:1033D000842C08BF002485B018BF033403AD0B460E
:1033E00040681168128ACDE90045FFF725FD0128E4
:1033F00014BF0020039805B030BD00BF08B50028F9
:1034000008BF0120FFF77EFF002008BD30B4134A3B
:1034100000E01A4613688342FBD3546841681519CB
:10342000A84208D04418A3420BD030BC904203609D
:1034300018BF10607047104621444418A3425160E1
:10344000F3D1074C2468A342EFD018CB904221441B
:10345000C0E9003130BC18BF10607047840F0020F5
:10346000740300202DE9F843414F0546FFF712FE93
:103470003B68002B3AD03F4B1E6835422FD175B3C5
:1034800005F1080359071CBF23F00703083333B3C2
:10349000DFF8F480D8F800509D4220D336490C68FC
:1034A00003E0206820B12146044662689A42F8D3BE
:1034B0003868A04213D00868D71A00F108092068BC
:1034C000102F086039D9E018420731D04FF050036F
:1034D00083F31188BFF36F8FBFF34F8FFEE7FFF7C2
:1034E00087FE4FF000094846BDE8F883234A0023D1
:1034F00050071CBF073222F0070214464FF000406D
:103500001F49DFF880C021F007018A1ACCF800209B
:10351000DFF874C00B604B603960C4E90012CCF86E
:1035200000201449144A0646C2E900430860A4E793
:1035300047606360FFF76AFF626800231149AD1AB4
:10354000086832438542C4E9003238BF0D60C8F8CC
:103550000050FFF74DFE19F0070FC4D04FF0500395
:1035600083F31188BFF36F8FBFF34F8FFEE700BF68
:1035700074030020780F0020840F002078030020BF
:10358000700F0020800F00207C0F0020D0B1194A5E
:1035900050F8043C126813420BD050F8081C91B14B
:1035A0004FF0500383F31188BFF36F8FBFF34F8F3A
:1035B000FEE74FF0500383F31188BFF36F8FBFF323
:1035C0004F8FFEE7704710B5044623EA020340F828
:1035D000043CFFF75FFD084A54F8043C1168A4F16D
:1035E00008000B441360FFF711FFBDE81040FFF720
:1035F000FFBD00BF780F00207C0F00200648006848
:10360000006880F3088862B661B6BFF34F8FBFF3DE
:103610006F8F00DF00BF000008ED00E000220E4BBE
:1036200082B01B680192013308D04FF0500383F33E
:103630001188BFF36F8FBFF34F8FFEE74FF050033A
:1036400083F31188BFF36F8FBFF34F8F019B002B64
:10365000FCD002B0704700BFC800002010B44FF08B
:103660008074064B21F0010140F8202C40E902143F
:1036700040F80C3C10BC4038704700BF1D360008B5
:10368000074B19680868B0E8F00F80F30988BFF3AA
:103690006F8F4FF0000080F311884EF00D0E7047D1
:1036A000480200204FF0500383F31188BFF36F8F5F
:1036B000BFF34F8F0A4A13680133012B136000D008
:1036C0007047084B1B6813F0FF0FF9D04FF0500301
:1036D00083F31188BFF36F8FBFF34F8FFEE700BFF7
:1036E000C800002004ED00E0084A136843B94FF019
:1036F000500383F31188BFF36F8FBFF34F8FFEE743
:10370000013B13600BB983F311887047C800002098
:10371000EFF30980BFF36F8F0D4B1A6820E9F00FAC
:1037200010602DE908404FF0500080F31188FFF73A
:103730000DFE4FF0000080F31188BDE808401968C5
:103740000868B0E8F00F80F30988BFF36F8F704707
:103750004802002008B54FF0500383F31188BFF3EF
:103760006F8FBFF34F8FFFF79DFC18B14FF0805262
:10377000024B1A60002383F3118808BD04ED00E0BA
:103780000023072110B4084A084C0948136023603D
:103790000368084C0848A4FB03439B09013B0360F2
:1037A00010BC1160704700BF10E000E018E000E0BE
:1037B000C4000020D34D621014E000E030B5FF25B6
:1037C0000724274B83B01A782648D2B201921D7085
:1037D0001B782549DBB28DF803309DF803309DF846
:1037E000032003F0500312060C60037048BF06224A
:1037F00001D40EE002469DF80330501E5B00DBB2A0
:103800008DF803309DF803301B06F3D4032A09D04A
:103810000A604FF0500383F31188BFF36F8FBFF33B
:103820004F8FFEE74FF440750024019A0C480F4B70
:10383000D2B20D6002701A6842F470021A601A68FF
:1038400042F070421A60FFF79BFF094B1C60FFF7C4
:10385000D5FEFFF77BFDFFF7E1FE204603B030BD4C
:1038600000E400E08C0F0020900F002020ED00E02D
:10387000C800002088B108B5D0F8B43213B10023D5
:10388000C0F8B43209B1C0F8B0120123027080F858
:103890009C32FCF715FE002008BD0220704700BFD7
:1038A00019B1C0F8B412002070470220704700BF61
:1038B00008B5FCF73FFE002008BD00BF08B5D0F8F2
:1038C000B4321BB11B68984700B908BD022008BD7F
:1038D00008B5D0F8B4325B689847002008BD00BF37
:1038E00038B5044600F52A75284600F059FB01203A
:1038F00094F8A812B4F8AE2201F01F038342C4E981
:10390000A50209D0A3B1022B0CD001F08001204602
:10391000FCF73CFE002038BD2946204600F074FA32
:10392000002038BD2946204600F0A4FA002038BD0A
:103930002946204600F0EEF8002038BD70B5054657
:1039400041B9D0F89432032B10D0052B0C462BD064
:10395000002070BDD0F8B4329B692BB190F89C2246
:10396000032A01D19847F3E7022070BD1646D0E93B
:10397000583293420BD99B1A9A42C0F860318CBFDF
:103980009AB292B2314600F075FB002070BDD0F8BB
:10399000B4321B691BB190F89C22032A0AD0284636
:1039A00000F070FB002070BDC5F89412FCF7EEFD2E
:1039B000204670BD9847F2E770B5044681B91346BA
:1039C000D0F89422022A1BD032F0040302D18021C5
:1039D000FCF7DCFD94F8A0320020012B0DD070BD67
:1039E000D0F8B4325B6933B190F89C22032A02D13B
:1039F0009847002070BD022070BD84F8A00270BD01
:103A0000D0E90862964226D8C369B3FBF2F502FBFF
:103A100015355DB99A4209D8D0F89822934205D25B
:103A20002A4600F011FBC4F898521BE0D4F8B432D7
:103A3000DB681BB194F89C22032A1AD0802120460F
:103A4000FCF7A4FD204600F029FB94F8A0320020EA
:103A5000012BC4D1D1E7B21A0D460262194692B2C7
:103A600000F0F2FA2B462A4629462046FCF7D6FDFE
:103A7000B0E720469847E1E770B5002240260446AB
:103A8000012511463346FCF763FD33468021C4F817
:103A90005851C4F8646120460022FCF759FD00210A
:103AA000D4F8B832A561666284F89C52C4F89412C6
:103AB0006160C4F8A41223B1D4F8B43220465B6824
:103AC0009847002070BD00BF01740020704700BF00
:103AD0000346042290F89C12002083F89D1283F87C
:103AE0009C22704790F89C32042B04BF90F89D32C2
:103AF00080F89C320020704790F89C22032A01D065
:103B00000020704708B5D0F8B432DB6903B198479C
:103B1000002008BD30B50B7883B003F06003202B84
:103B20000D4604460DD0402B0BD09BB18021204682
:103B3000FCF72CFD20460021FCF728FD002003B0F7
:103B400030BDD4F8B43229469B68204698470020FF
:103B500003B030BD4B78092BE8D801A252F823F00E
:103B6000BB3B0008E73B00082D3B0008033C000876
:103B70002D3B0008153C00084F3C00082D3B000879
:103B8000853C0008893B000889789E4D01292970F1
:103B9000CCD890F89C32022B00F00A81032B00F065
:103BA000F6808021FCF7F2FC00212046FCF7EEFCB9
:103BB00029782046FFF78CFEC0E790F89C32013B45
:103BC000022BB3D8CB88022BB0D10122D0F8A4327B
:103BD000C2600BB10323C360022204F10C01204632
:103BE00000F024FAAAE790F89C32013B022B9DD802
:103BF0004B88012BA2D10023C0F8A43200F042FA76
:103C00009CE74B88012B99D1C0F8A432204600F0E4
:103C100039FA93E78B88002B88D1CB88002B85D18C
:103C20004D887F2D82D890F89C32032B3FF47EAFD5
:103C3000E9B280F89E12FCF7D5FC204600F022FA8B
:103C4000002D00F0DB80022384F89C3276E700230D
:103C50004A88ADF80630130A013B062B3FF666AFE3
:103C600001A151F823F000BF1B3D0008033D0008EF
:103C70002B3D00082D3B00082D3B0008ED3C0008C3
:103C8000AB3C0008CA88012A7FF450AF90F89C3200
:103C9000002B3FF44BAF022B40F29880032B7FF4B4
:103CA00045AF011D00F0C2F948E7037C002B7FF40B
:103CB0003DAFD0F8B4320DF106001B6B98470723D7
:103CC0004370BDF80630EA8863B1002A9ED0934263
:103CD00028BF134601461A462046ADF8063000F0CC
:103CE000A5F9EA88002A7FF429AF8FE7037C002B2F
:103CF0007FF41CAFD0F8B4320DF106005B6B98472F
:103D0000DFE7027CD0F8B432002A66D19B6A0DF15D
:103D10000600984702234370D3E7D0F8B0320DF184
:103D200006011B68007C9847CBE7D2B2052A3FF614
:103D3000FDAEDFE802F026201A140E03D0F8B032F0
:103D40009B69002B3FF4F2AE0DF10601207C9847F1
:103D5000B7E7D0F8B0325B69002BF5D1E6E6D0F8D2
:103D6000B0321B69002BEFD1E0E6D0F8B032DB684F
:103D7000002BE9D1DAE6D0F8B0329B68002BE3D112
:103D8000D4E6D0F8B0325B68002BDDD1CEE659B373
:103D9000416801293FF43AAFC9B2FFF799FD29788C
:103DA00020466160FFF78AFD02287FF42FAFBDE651
:103DB00000293FF42BAF01210323416080F89C329E
:103DC000FFF77CFD02287FF421AFAFE60023014618
:103DD00041F8083F00F02AF9B0E6DB6A0DF1060071
:103DE0009847022343706CE70223416080F89C32BD
:103DF000FFF76EFD204600F045F99FE6012384F8A9
:103E00009C329BE6940F002038B50B780D4603F0EA
:103E10006003202B04460BD0402B09D043B18021F6
:103E2000FCF7B4FB20460021FCF7B0FB002038BDB6
:103E300094F89C32013B022B11D82B79012B0ED820
:103E4000D4F8B43229469B6820469847EB88002B6B
:103E5000ECD10028EAD1204600F014F9E6E78021F1
:103E60002046FCF793FB20460021FCF78FFB002047
:103E700038BD00BF70B50B78044603F06003202BFB
:103E80000CD0402B0AD083B180212046FCF77EFB6A
:103E900020460021FCF77AFB002070BDD4F8B43234
:103EA00020469B689847002070BD4B788A88012B7C
:103EB000D5B23CD093B1032BE6D190F89C32022BC3
:103EC00044D0032BE0D14B8823B96A0602D0CB88BB
:103ED000002B61D0204600F0D5F8DDE790F89C3249
:103EE000022B3DD0032BCFD105F00F0303EB83034F
:103EF000120600EB830342D4D3F85831002BC3D011
:103F000005F07F0303EB830600EB860606F5AA7631
:103F100033B129462046FCF755FB00283AD001234F
:103F2000336031462046022200F080F8B4E790F872
:103F30009C32022B0AD0032BA6D14B88002BABD18D
:103F40006E06C7D02946FCF72FFBC3E76B069BD054
:103F50002946FCF71BFB20468021FCF717FB9BE75B
:103F6000680691D1002311064CBF04F1140104F539
:103F7000AA7120460B60022200F058F88CE79B697A
:103F8000002B81D005F07F035E1C06EB860600EB5C
:103F90008606BDE73060C4E72946FCF7F7FA99E7E3
:103FA0000B7803704B784370CA788B7803EB02234D
:103FB00043804A790B7903EB02238380CA798B799A
:103FC00003EB0223C380704710B504468021FCF741
:103FD000DDFA2046BDE810400021FCF7D7BA00BF4B
:103FE00008B3037870B4FBB10446C0F10106A3190D
:103FF00014F8015FDBB2002DF9D101335B0003241B
:1040000013800B704C7004785CB1022300255A1C9D
:10401000D2B2CC548D5410F8014F0233DBB2002CD5
:10402000F5D170BC704770470223E8E738B51346F6
:1040300002250A46C0E90733C0F894520021FCF774
:10404000DFFA002038BD00BF08B513460A4600213C
:10405000FCF7D6FA002008BD38B5134603250A46FA
:10406000C0E95733C0F894520021FCF7D7FA00207A
:1040700038BD00BF08B513460A460021FCF7CEFA4A
:10408000002008BD08B504220023C0F89422194678
:104090001A46FCF7B5FA002008BD00BF08B5052296
:1040A0000023C0F8942219461A46FCF7B7FA0020FC
:1040B00008BD00BF29230380004870470401002089
:1040C0002923038000487047300100202923038002
:1040D00000487047740100200023D0F8B822184629
:1040E0001375704710B5D0F8B8422369012B07D17A
:1040F000D0F8BC326178DB682078984700232361D0
:10410000002010BD0A23038000487047680100208A
:1041100038B5D0E9AE53044669782878DB6898470B
:104120002A46204602230121FCF778FA002038BDF8
:10413000002330B50C7883B014F06004D0F8B85286
:10414000ADF8063016D0202C0ED14B78023B092B4F
:104150000AD8DFE803F0474E0909090909545C61F0
:1041600090F89C22032A5BD0FFF72EFF0224204602
:1041700003B030BD4B780B2BF6D801A252F823F0D8
:10418000614100086941000869410008694100086F
:104190006941000869410008CF41000869410008F1
:1041A0006941000869410008BF410008B1410008A9
:1041B00090F89C32032BD7D18B78EB60D7E790F83F
:1041C0009C32032BD0D105F10C01012207E04B8872
:1041D0001B0A222B2BD0212B31D000210A46FFF7BE
:1041E00025FFC4E705F108010122FFF71FFF0024A6
:1041F000BDE7291D0122FFF719FF0024B7E70123BE
:10420000CA882B612946FFF727FF0024AFE74B88B8
:1042100000241B0AAB60AAE78B7800246B60A6E73A
:1042200002220DF106011C46FFF700FF9FE7CA8836
:10423000D0F8BC325B2A28BF5B221968CFE7CA8856
:104240000249092A28BF0922C9E700BF5C010020F2
:1042500038B5044600258121FCF78AF9E56220463D
:104260000121FCF785F9D4F8B832C4F86C514BB190
:10427000D4F8BC329B689847D4F8B802FCF7E0F950
:10428000C4F8B852002038BDF8B504460125022311
:1042900003228121FCF75CF9294602230322E5620F
:1042A0002046FCF755F9C4F86C511820FCF7C4F906
:1042B000C4F8B80270B100270646D4F8BC320775BE
:1042C0005B6898473246294620460223FCF7A6F948
:1042D0003846F8BD2846F8BD19B1C0F8BC12002018
:1042E00070470220704700BF10B5836884B0009308
:1042F0004C1C8DF80D200179022303AA00688DF86B
:104300000C40FDF711FD04B010BD00BF10B54F24E7
:10431000836884B00179009303AA02230068ADF892
:104320000C40FDF701FD04B010BD00BF30B50446E0
:104330004FF4807585B0FFF7E9FFA36821790093FA
:1043400003AA02232068ADF80C50FDF7EDFC218A8A
:10435000E0680122FEF71AFC05B030BD10B5252437
:10436000836884B00179009303AA02230068ADF842
:104370000C40FDF7D9FC04B010BD00BF70B5054678
:10438000262484B041EA0206AA688DF80C40009207
:104390000134022303AA29792868E4B28DF80D605C
:1043A000FDF7C2FC4A2CEFD104B070BD2DE9F041FD
:1043B0000B299DF818602DD8857C01EB4101012D5A
:1043C000CCB229D09DB3022D0CBF31460021054649
:1043D00017460A4621469846FFF786FFEB7C611C8C
:1043E000012BC9B22CD003B3022B0CBF32460022E2
:1043F0002846FFF779FF2B7DA11C012BC9B218D0ED
:1044000063B1022B18BF002628463246BDE8F041B2
:10441000FFF76ABFBDE8F0811946D8E73E46284657
:104420003246BDE8F041FFF75FBF3A46E0E711468C
:10443000CDE7464628463246BDE8F041FFF754BF77
:104440004246D5E7FF2300B583B00748002200931A
:104450000121FFF7ABFF0448FFF780FF00F020F8D1
:104460000120FEF7CBFFF9E7DC10002010B582B089
:1044700000F0F0F818B10124204602B010BD01226E
:104480000446064B8DF80020019302AB13E90C00A3
:10449000082100F01DF9204602B010BDA001002047
:1044A00010B5054C9A21204600F02EF92046BDE8B3
:1044B00010409A2100F044B8980F002070B50124F4
:1044C0001B4A1C4D9378517810789B0043EA4103B6
:1044D000D1780343107943EAC1035179967943EACD
:1044E000001343EA4113D07913492D7843EA861328
:1044F00082B00A7843EAC01388784E788DF801308C
:104500008DF802500B79CD788DF803208DF80500D9
:104510000822694609488DF804608DF806508DF828
:1045200007308DF8004000F065F902B070BD00BFA3
:10453000681800203210002070180020F4100020AD
:104540002DE9F84F002504460E4600F09FF8DFF8ED
:10455000B880DFF8B8908246C9F8005089F8045056
:1045600088F8005088F8015088F8025088F8035005
:1045700088F8045088F8055088F8065088F80750E5
:10458000002E37D0013EB6B226444FF0010B1D4F2E
:10459000013C0CE0012B08D1436833B1042D04D851
:1045A0001A786B1C09F805209DB2B44215D014F896
:1045B000011F387800F070F80378002BEAD14368C7
:1045C000002BF2D01A7872B1012AEED15B68002B71
:1045D000EBD0B44293F800A0E9D1FFF76FFF87F862
:1045E00000A0BDE8F88F5B68002BDED01B7808F8D0
:1045F00003B0DAE7034FFFF761FF87F800A0BDE8DB
:10460000F88F00BF331000206818002070180020B9
:1046100038B5042000F052F90A4B186080B1044606
:104620004FF49B6000F04AF9206048B1002301215B
:10463000054C064A064D2370117018462B7038BD84
:10464000012038BD781800203310002035100020DC
:104650003410002070B5FFF7DBFF80B90646024634
:10466000084B094C1D682B6894E80300134408327A
:10467000B2F59B6F83E80300F5D1304670BD01268B
:10468000304670BD78180020A4010020014B187836
:10469000704700BF34100020094B1B7883429CBF39
:1046A000084B18784B1E992B08D8074B1B682BB169
:1046B00053F8200010B100EBC10070470348704769
:1046C000351000203410002078180020A4010020AC
:1046D00010B40B4C83B024780DF1080C84420CE923
:1046E0000C0009D99A2907D8064C246854F82000F0
:1046F00000EBC10181E80C0003B010BC704700BFA3
:1047000035100020781800202DE9F84F83468A469E
:1047100049B100210AF1FF3292B20244431E03F86C
:10472000011F9342FBD10024E0B20021013400F0CC
:104730002FF8162CF8D10027B8465FFA87F9C7EB97
:10474000C70648460121F6B2002400F021F80136E0
:1047500001E0072C12D0E5B2284600F035F8012818
:1047600004F10104F5D1C245F3D9354408F1010340
:10477000072C0BF808501FFA83F8ECD14846013794
:10478000002100F005F8162FD7D1BDE8F88F00BF43
:10479000152814D80A4A0B4B012910B433F81030ED
:1047A00052F8204005D020461946002210BCFEF7E2
:1047B000EDB90A462046194610BCFEF7E7B9704726
:1047C000C84A00089C4A0008062801D90020704702
:1047D00008B5064A064B32F8101053F82000FEF7D1
:1047E000CFF9003018BF012008BD00BF204B0008E2
:1047F000304B000838B590F89C52032D02D00024AD
:10480000204638BDD0F8B85295F8604014B1012464
:10481000204638BD13460A46012185F860108121E3
:10482000FBF7EEFE204638BD002103E00B4B5B5842
:10483000435004310A480B4B42189A42F6D30A4AB5
:1048400002E0002342F8043B084B9A42F9D3FEF7FA
:10485000F7F900F00FF8FBF7BBFC7047544B00086A
:104860000000002010020020100200208C18002000
:10487000FEE7000070B500260C4D0D4C641BA41023
:10488000A64209D100F0A8F800260A4D0A4C641B84
:10489000A410A64205D170BD55F8043B98470136D7
:1048A000EEE755F8043B98470136F2E74C4B000819
:1048B0004C4B00084C4B0008504B0008024B014683
:1048C000186800F003B800BFAC010020F8B5CD1C9B
:1048D00025F0030508350C2D38BF0C25002D0646A4
:1048E00001DBA94203D90C2333600020F8BD00F09E
:1048F00057F821490A6814469CB9204F3B6823B9F0
:104900002146304600F03CF838602946304600F039
:1049100037F8431C23D10C233046336000F046F8AF
:10492000E3E723685B1B17D40B2B03D923601C44DC
:10493000256004E06368A2420CBF0B605360304600
:1049400000F034F804F10B00231D20F00700C21A18
:10495000CCD01B1AA350C9E722466468CCE7C41C1C
:1049600024F00304A042E3D0211A304600F008F8F6
:104970000130DDD1CFE700BF381000203C1000200F
:1049800038B50023054C05460846236000F016F8AC
:10499000431C02D1236803B12B6038BD7C18002072
:1049A000014800F009B800BF84180020014800F059
:1049B00004B800BF8418002070477047044A0549B6
:1049C0001368002B08BF0B46184410601846704748
:1049D0004010002090180020F8B500BFF8BC08BCBB
:1049E0009E467047F8B500BFF8BC08BC9E467047AD
:1049F000144A0008510100080000000000000000F7
:104A00008000000002030405060708090A0B0C0DCC
:104A10000E0F101064656661756C745461736B00E1
:104A200000020102437573746F6D204849442043AE
:104A30006F6E666967000000437573746F6D204880
:104A4000494420496E746572666163650000000028
:104A50004A6F68616E6E6573204265726E646F7234
:104A6000666572004A4B502050726F6772616D6DBF
:104A70006572204B6579626F61726400000000000E
:104A800000000000010203040607080900000000FE
:104A90000102030449444C450000000000010002EB
:104AA000000180004000008000400020001000084D
:104AB000000402000100200010008000000100023C
:104AC000020000200040008000080140001001406A
:104AD000001001400010014000100140000C014096
:104AE000000C0140000C0140000C0140000C014092
:104AF000000C0140000C0140000C0140001001407E
:104B00000010014000080140000C0140000C014071
:104B10000010014000100140001001400010014051
:104B20000100400020001000080004000200000006
:104B30000008014000080140000801400008014051
:0C4B40000008014000080140000801408E
:044B4C003501000827
:044B50001101000847
:104B54004906000855060008D9060008F5060008AD
:104B640091060008110700082D0700081201000231
:104B7400000000408304000400020102030100005D
:104B8400040309041A0300000000000000000000F0
:104B94000000000000000000000000000000000011
:104BA40005010906A1018501050719E029E715009A
:104BB4002501750195088102950175088103950504
:104BC40075010508190129059102950175039103E1
:104BD40095057508150025650507190029658100E7
:104BE400C00600FF0901A10185020600FF090115A5
:104BF4000026FF00750895409102C0005000002077
:104C040049070008510700084D070008010000008B
:104C1400100000000024F400AAAAAAAA89420008ED
:104C2400514200083141000800000000E54000083E
:104C3400D9400008114100080000000000000000F5
:104C440000000000C1400008B5400008CD40000845
:104C54000541000809022900010100C032090400CD
:104C6400000203000000092111010001225B00077A
:104C74000581030200050705010302000500000089
:104C840009022900010100C03209040000020300E6
:104C94000000092111010001225B000705810302C4
:104CA40000050705010302000500000009211101A8
:104CB4000001225B000000000A0600020000004020
:104CC4000100000009022900010100C032090400AA
:104CD400000203000000092111010001225B00070A
:104CE4000581030200050705010302000500000019
:104CF400040000000300000000000000B0010020D8
:104D0400000000000000000000000000000000009F
:104D1400000000000000000000000000000000008F
:104D2400000000000000000000000000000000007F
:104D3400000000000000000000000000000000006F
:104D4400000000000000000000000000000000005F
:104D5400000000000000000000000000000000004F
:04000005080048297E
:00000001FF
