:020000040800F2
:100000000028002081380008D12D0008D32D0008D9
:10001000D52D0008D72D0008D92D000800000000BC
:10002000000000000000000000000000DB2D0008C0
:10003000DD2D000800000000DF2D0008C938000891
:10004000C9380008C9380008C9380008C93800088C
:10005000C9380008C9380008C9380008C93800087C
:10006000C9380008C9380008C9380008C93800086C
:10007000C9380008C9380008C9380008C93800085C
:10008000C9380008C9380008C9380008C93800084C
:10009000E12D0008C9380008C9380008C93800082F
:1000A000C9380008ED2D0008C9380008C938000813
:1000B000C9380008C938000800000000C938000825
:1000C000C93800080000000000000000C93800081E
:1000D00000000000C9380008C9380008000000000E
:1000E000C9380008C9380008C938000800000000F5
:1000F0000000000000000000000000000000000000
:0C01000000000000000000005FF808F1A3
:10010C0010B5054C237833B9044B13B10448AFF345
:10011C0000800123237010BDAC0100200000000002
:10012C00C83A000808B5034B1BB103490348AFF3A9
:10013C00008008BD00000000B0010020C83A000893
:10014C00074A08B51368032043F01003136000F04E
:10015C002DF8002002F0FAFD02F066FD002008BD2B
:10016C0000200240034A044B11681B780B441360B7
:10017C00704700BF9402002000000020014B18685B
:10018C00704700BF9402002038B50446FFF7F6FF15
:10019C000546631C1EBF044B1B78E418FFF7EEFFEB
:1001AC00401B8442FAD838BD00000020074A0002E8
:1001BC00D36800F4E06023F4E0631B041B0C43F0F1
:1001CC00BF6343F400330343D360704700ED00E09A
:1001DC00174B30B5DC68C4F30224C4F10703251DAA
:1001EC00042B28BF0423062D4FF0010598BF0024D3
:1001FC0005FA03F303F1FF3388BF033C1940A14018
:10020C0005FA04F4013C2240002842EA01024FEABC
:10021C000212AFBF00F16040064B00F00F00D2B2EB
:10022C00A5BFD2B200F561401A5480F8002330BD4E
:10023C0000ED00E014ED00E00123420900F01F0086
:10024C0003FA00F0014B43F82200704700E100E094
:10025C002DE9F74F00221646624BDFF89CE1DFF8E0
:10026C009CC14FF001080C6808FA06F808EA04046F
:10027C00A0457BD14D68122D00F0AB8000F284803C
:10028C00022D00F0A38078D8002D00F08A80012D7B
:10029C0000F09A804FF00F09FF2C93BF824606F1B5
:1002AC008045083DD0F800B092BFB500D0F804B03E
:1002BC00AD0009FA05F82BEA080802FA05F588BF23
:1002CC0000F1040A48EA0505CAF80050D1F804A068
:1002DC001AF0805F4AD0444D434FAD6926F00308B5
:1002EC0045F00105BD61BD6908F1804805F00105C7
:1002FC00019508F5803806F0030B019D4FEA8B0B36
:10030C00D8F8085009FA0BF925EA0909374DA84223
:10031C0064D005F58065A84262D005F58065A842D9
:10032C000CBF0225032505FA0BF545EA0905C8F8AB
:10033C0008501D681AF4803F14BF2543A5431D6067
:10034C005D681AF4003F14BF2543A5435D609D68AA
:10035C001AF4801F14BF2543A5439D60DD681AF471
:10036C00001F14BF2C4325EA0404DC600136102E58
:10037C007FF477AF03B0BDE8F08F032D22D0112DA1
:10038C0088D1CA68043285E7194FBD4209D012D80A
:10039C00DFF86C904D4504D009F580394D457FF45C
:1003AC0079AF8A68C2B1012A0CBFC0F81080C0F8BE
:1003BC00148008226EE70F4FBD42F2D07545F0D085
:1003CC006545ECE7002265E7CA6863E7CA6808324E
:1003DC0060E7CA680C325DE704225BE70025A2E700
:1003EC000125A0E700040140001002400008014074
:1003FC00000021100000311000003210000022100B
:10040C00000011108368194214BF012000207047AE
:10041C000AB1016170470904FBE70268536913F4E0
:10042C0080630DD06FF48063536104232022036436
:10043C000023036380F83C3080F83D200120704796
:10044C00184670472DE9F843044617469946C1F300
:10045C0007488EB22568B8F1010F0CBF6B69AB6908
:10046C0036EA030314BF0120002008B9BDE8F88365
:10047C006B695A0512D52B68202243F400732B604C
:10048C006FF480636B6104232364002301202363D6
:10049C0084F83C3084F83D20BDE8F8837B1CD9D02F
:1004AC004FB900232022236384F83C3084F83D208C
:1004BC000320BDE8F883FFF761FEA0EB090087423B
:1004CC00C8D2EEE72DE9F843044690461F46089E35
:1004DC00C1F307498DB22368B9F1010F0CBF5B69F9
:1004EC009B6935EA03030CBF01230023434502D06B
:1004FC000020BDE8F8837B1CEDD05FB900232022DF
:10050C00236384F83C3084F83D20032084F83E308B
:10051C00BDE8F883FFF732FE801B8742DBD2EDE7A4
:10052C0070B504460D46164623685B691B0601D55B
:10053C00002070BD2046FFF770FFA8B96A1CF3D0ED
:10054C0065B9236C202243F020032364002303208D
:10055C00236384F83C3084F83D2070BDFFF70EFE19
:10056C00801B8542E0D2ECE7012070BD70B50446DB
:10057C000D46164623685B695B0701D5002070BDEC
:10058C002046FFF74AFFA8B96A1CF3D065B9236C63
:10059C00202243F02003236400230320236384F8E8
:1005AC003C3084F83D2070BDFFF7E8FD801B854290
:1005BC00E0D2ECE7012070BD38B5044608B9012043
:1005CC0038BD90F83D3003F0FF021BB980F83C2099
:1005DC0002F04CFB2423226884F83D30136823F08E
:1005EC000103136000F092FF63682F4A934230D8E6
:1005FC002E4A9042E3D92E4A2168B0FBF2F24A60AF
:10060C0001320A62284A0138934232D85B00B0FBAF
:10061C00F3F0431CC3F30B03042B38BF0423CB614F
:10062C00226AE369002013430B60E26823691343D9
:10063C008B60A26963691343CB600B6843F00103C1
:10064C000B602023206484F83D30206384F83E0046
:10065C0038BD184A9042B2D9154D4FF49672B0FB82
:10066C00F5F521686A434D604FF47A75B2FBF5F2EB
:10067C00C6E7A26852B903EB4303B0FBF3F0431C8B
:10068C00C3F30B036BB143F40043C8E71922534384
:10069C00B0FBF3F0431CC3F30B0313B143F440431F
:1006AC00BDE70123BBE700BFA08601007F841E00CD
:1006BC0040420F00FF083D002DE9FF4104461F4654
:1006CC000D469046FFF75AFD94F83D300646202B18
:1006DC0004D00225284604B0BDE8F081009019230F
:1006EC0001225D492046FFF7EDFE0028F1D194F878
:1006FC003C30012BEDD0012384F83C3023681A6880
:10070C00D2075EBF1A6842F001021A601A6822F41E
:10071C0000621A60212284F83D20102284F83E20C9
:10072C0000222264A2F580326785E262628DC4F8F1
:10073C0024802285E26A042A04D0012A02D012F510
:10074C00803F04D11A6842F480721A6002E0226B76
:10075C00122AF7D000960A9B00224FF00111204676
:10076C00FFF7B0FE28BB23692268B3F5804F12D186
:10077C0005F0FE05156133460A9A38492046FFF705
:10078C0061FE0546A0B9236803905A6903929B69E0
:10079C000393039B50E0EB1103F0060343F0F003CB
:1007AC0013612F4933460A9A2046FFF74BFE48B196
:1007BC00236C236C042B4FF0000307D184F83C30DE
:1007CC00012587E72368EDB21D61D4E784F83C303E
:1007DC0003257FE732460A992046FFF7A1FE40B178
:1007EC00236C042BF4D12268136843F40073136058
:1007FC00E6E7616A20684B1C63620B78228D03610B
:10080C00638D013B9BB263854769531E9BB27F0787
:10081C0023850AD54BB18B1C63624B78023A03617A
:10082C00638D2285013B9BB2638532460A99204633
:10083C00FFF79CFE0028D3D1238D002BCAD1216851
:10084C000A6842F400720A60202284F83C3084F872
:10085C003D2084F83E303DE702001000020001000C
:10086C00080001002DE9F041044686B0002860D054
:10087C0090F8293403F0FF021BB980F8282402F009
:10088C001DFB254603236E4655F8100B84F82934BE
:10089C0001F0CEF80FCD0FC62B6804F104083360BD
:1008AC0098E80E00206801F0B3F80021206801F0F0
:1008BC00C9F80021234622460126084604F11005FA
:1008CC0082F82810918601310F2982F8296082F86C
:1008DC002B009063D063106402F12002F0D100224F
:1008EC00174683F828229A8601320F2A83F8297238
:1008FC0083F82B72C3F83872C3F83C72C3F8407299
:10090C0003F12003EDD16E460FCD0FC62B6833607B
:10091C0098E80E00206801F097F8012384F8247001
:10092C00206884F8293401F067FB002006B0BDE88C
:10093C00F0810120FAE790F8283410B5012B044619
:10094C000ED0012180F8281402F0D5FB206801F0AC
:10095C0051FB206801F063F8002084F8280410BDD6
:10096C00022010BD90F8282410B5012A04460BD0A3
:10097C00012280F8282484F82410006801F034FB4C
:10098C00002084F8280410BD022010BD38B50446A0
:10099C0048B2002801F07F05B5BF04EB451104EB0C
:1009AC004111283101F50A71C00F0D704870CB70E0
:1009BC0094F828340A61012B09D00123206884F8AB
:1009CC00283401F05DF8002084F8280438BD02209A
:1009DC0038BD4BB2002B01F07F02B5BF00EB4211CA
:1009EC0000EB4111283101F50A71DB0F10B50A70CB
:1009FC004B7090F828340446012B09D0012380F861
:100A0C002834006801F0AEF9002084F8280410BDE9
:100A1C00022010BD70B5002601F07F014D01441974
:100A2C0084F8281205F50A710144C4F83C22C4F874
:100A3C004032C4F8446284F82962006801F0F6FA86
:100A4C00304670BD01F07F0170B54D01441923642F
:100A5C000026012384F8281005F128010144E263E3
:100A6C00666484F82930006801F0E0FA304670BD05
:100A7C002DE9F3470446006801F0C0FA000400F1C8
:100A8C009880206801F0BAFA41050FD522682046FB
:100A9C00B2F8443023F480631B041B0CA2F84430DE
:100AAC0002F043FA00212046FFF75CFF206801F0BA
:100ABC00A5FA470408D52268B2F8443023F48043E1
:100ACC001B041B0CA2F84430206801F097FA860432
:100ADC0008D52268B2F8443023F400531B041B0CD5
:100AEC00A2F84430206801F089FAC5041CD52268AC
:100AFC002046B2F8403023F004031B041B0CA2F870
:100B0C004030B2F8403023F008031B041B0CA2F851
:100B1C00403002F02DFA2268B2F8443023F48053AE
:100B2C001B041B0CA2F84430206801F067FA000586
:100B3C001DD52068B0F840309BB243F00803A0F8F4
:100B4C004030B0F8443023F400631B041B0CA0F8B5
:100B5C004430B0F840309BB243F00403A0F840306E
:100B6C0001F04CFAC10402D4204602F0F1F92068DD
:100B7C0001F044FA82050BD522682046B2F84430C5
:100B8C0023F400731B041B0CA2F8443002F0C9F9C7
:100B9C00206801F033FAC30508D52268B2F8443056
:100BAC0023F480731B041B0CA2F8443002B0BDE884
:100BBC00F0870023C84FDFF82483DFF82493ADF8C7
:100BCC000430ADF806302068B0F844309BB2ADF874
:100BDC0004301B047FF555AFBDF8045015F00F051C
:100BEC0040F0AB80BDF80410038811F010019BB2EB
:100BFC0026D13B400380B0F8503094F828209BB2AB
:100C0C0003EBC20300EB4300D0F80434E26BC3F3F4
:100C1C00090363641344E363204602F07BF994F800
:100C2C002430002BCFD0226C002ACCD194F8243065
:100C3C00216843F08003A1F84C3084F82420C2E7EB
:100C4C00ADF80630BDF806301A051FD5B0F8503097
:100C5C0094F828229BB203EBC20300EB4303D3F8B6
:100C6C000C34B4F82C22C3F30903C4F8443204F254
:100C7C002C4101F0DBFA22682046138823F0700324
:100C8C001B051B0D138002F037F99CE7BDF80630ED
:100C9C001B0498D5038823F070031B051B0D0380E0
:100CAC00B0F8503094F828229BB203EBC20300EB4F
:100CBC004303D3F80C34C3F30903C4F8443263B1CF
:100CCC00B4F82C22D4F83C1201F0B0FAD4F83C322F
:100CDC00D4F844221344C4F83C320021204602F0DC
:100CEC0011F92268D4F83852B2F850103E2D89B25E
:100CFC0001F1060102F5806017D9C5F34F13EE061A
:100D0C0004BF03F1FF339BB249EA83239BB240F843
:100D1C00113013889BB203EA080383F4405343F465
:100D2C00004343F0800313804DE7C5F34F03ED07F9
:100D3C0044BF01339BB29B02E8E730F825309BB2ED
:100D4C00ADF80630BDF8063019043FD530F8253023
:100D5C004FEA451A23F070031B051B0D20F82530B4
:100D6C0004EB0A0191F83232002B74D1B0F85030F8
:100D7C0091F828229BB2063303EBC20300EB43032A
:100D8C00D3F80064C6F3090636B1B1F82C22334609
:100D9C00D1F83C1201F04AFA04EB0A01D1F84432C2
:100DAC00D1F83C223344C1F84432D1F840323244B9
:100DBC00C1F83C2223B1D1F83802864280F08680FB
:100DCC00A2449AF82812204602F09CF8BDF806308E
:100DDC001A067FF5F8AE20686E0130F82530A1199F
:100DEC009BB23B4020F8253091F832300235002B75
:100DFC0078D1B0F8503091F828209BB2023303EB35
:100E0C00C20300EB4303D3F8003404EB4515C3F3E2
:100E1C0009036B601BB18A8DC96B01F0F5F8226870
:100E2C002644B2F8503096F828109BB2023303EBEC
:100E3C00C10302EB4303D3F80024F36BC2F30902A2
:100E4C0072641A44336CF2632046002B40F08580A8
:100E5C0002F060F8B7E691F8283230F82320DB0076
:100E6C0012F4804FB0F8502092B221D002321344C9
:100E7C0000EB4303D3F80064C6F3090636B13346DE
:100E8C00B1F82E22D1F83C1201F0D0F904EB0A0390
:100E9C0093F82812226832F8213023F0F0031B0556
:100EAC001B0D43F4004343F0C00322F8213073E7D9
:100EBC000632134400EB4303D3F80064C6F309066F
:100ECC00002EE3D03346B1F83022DBE791F828123C
:100EDC002046FFF79FFD79E70F8FFFFF8FBFFFFFC6
:100EEC000080FFFF91F8283030F82320DB0012F04F
:100EFC00400FB0F8502092B220D00232134400EBD5
:100F0C004303D3F8003404EB4515C3F309036B60BA
:100F1C001BB1CA8DC96B01F077F8A31993F828108F
:100F2C00226832F8213023F0F0031B051B0D43F42B
:100F3C00404343F0800322F8213070E7063213441B
:100F4C0000EB4303D3F8003404EB4515C3F309035A
:100F5C006B60002BE1D00A8EDCE7FFF773FD32E605
:100F6C00012238B54BB2002B01F07F05B5BF00EB69
:100F7C00451100EB4111283101F50A71DB0FEDB27F
:100F8C008A700D704B7090F82834044693420ED042
:100F9C0080F82824006800F0B3FF25B904F22C4136
:100FAC00206801F02FF8002084F8280438BD0220B6
:100FBC0038BD38B500244BB2002B01F07F02B5BF11
:100FCC0000EB421100EB4111283101F50A71DB0FE6
:100FDC008C700A704B7090F828340546012B09D0A0
:100FEC00012380F82834006800F0BCFF85F8284401
:100FFC00204638BD022038BD11F0800F1BBF01F018
:10100C007F0100EB411000EB4110283008BF00F5C8
:10101C000A701AB982728380002070470122C38043
:10102C001B0C82720381F7E703682DE9F341DB07A0
:10103C00054610D42B689F075ED42B68190700F166
:10104C0095802B685A0700F1BF80EA69002A40F0AE
:10105C002D81002014E0904C636803F00C03042BEA
:10106C0007D0636803F00C03082B0CD16368DE0314
:10107C0009D523689C03DDD56B68002BDAD10120E0
:10108C0002B0BDE8F0816B68B3F5803F10D12368E6
:10109C0043F480332360FFF771F806462368980306
:1010AC00C8D4FFF76BF8801B6428F7D90320E7E757
:1010BC009BB9236823F480332360236823F48023B3
:1010CC002360FFF75BF8064623689903B2D5FFF758
:1010DC0055F8801B6428F7D9E8E7B3F5A02F2368EF
:1010EC0003D143F480232360D1E723F480332360BE
:1010FC00236823F48023CDE7674C636813F00C0F4F
:10110C0007D0636803F00C03082B10D16368DA0373
:10111C000DD423689B0702D52B69012BAFD1236813
:10112C006A6923F0F80343EAC203236085E72A695E
:10113C005A4B6AB101221A60FFF720F80646236861
:10114C009F07ECD4FFF71AF8801B0228F7D9ADE7FC
:10115C001A60FFF713F80646236898077FF56DAF02
:10116C00FFF70CF8801B0228F6D99FE7AA694A4CB6
:10117C004B4BDAB101221A60FFF700F80646636A9E
:10118C009B070DD54FF4FA52464B1B68B3FBF2F399
:10119C00019300BF019B5A1E0192002BF9D150E71D
:1011AC00FEF7ECFF801B0228E9D97FE71A60FEF7F7
:1011BC00E5FF0646636A9F077FF543AFFEF7DEFF48
:1011CC00801B0228F6D971E7334CE369D80024D48C
:1011DC000127E36943F08053E361E36903F0805333
:1011EC000093009B304E3368D90518D5EB68012B62
:1011FC0026D1236A43F001032362FEF7BFFF41F2BD
:10120C0088368046236A9B073FD5002F3FF41DAFDD
:10121C00E36923F08053E36117E70027E2E73368C3
:10122C0043F480733360FEF7A9FF80463368DA0518
:10123C00DCD4FEF7A3FFA0EB08006428F6D935E751
:10124C00ABB9236A41F2883823F001032362236A85
:10125C0023F004032362FEF791FF0646236A9807E6
:10126C00D3D5FEF78BFF801B4045F7D91EE7052B26
:10127C00236A03D143F004032362BAE723F001038A
:10128C002362236A23F00403B6E7FEF777FFA0EB93
:10129C000800B042B6D909E70010024000004242F3
:1012AC00800442420400002000700040224C63681D
:1012BC0003F00C03082B3FF4E2AE00231F4E022A6E
:1012CC0033602BD1FEF75AFF0746236899011FD4D0
:1012DC002B6AB3F5803F05D16268A96822F400320D
:1012EC000A436260696A62680B4322F47412134306
:1012FC00636001233360FEF741FF054623689A01C2
:10130C003FF5A7AEFEF73AFF401B0228F6D9CDE613
:10131C00FEF734FFC01B0228D7D9C7E6FEF72EFF15
:10132C00054623689B017FF594AEFEF727FF401B13
:10133C000228F6D9BAE600BF001002406000424213
:10134C0030B51B4B87B002AC03F110052246186870
:10135C005968083303C2AB421446F7D101238DF808
:10136C000430022313498DF805304B6803F00C024E
:10137C00042A1BD0082A02D00F4807B030BDC3F393
:10138C00834206A80244DB0312F8102C0BD54B68E1
:10139C000A48C3F34043504306AA134413F8143CC1
:1013AC00B0FBF3F0E9E706485043E6E70348E4E70F
:1013BC00E03A00080010024000127A000024F40009
:1013CC0000093D004D4A2DE9F0411368054603F034
:1013DC0007038B420E4628D32A68910732D4D207D2
:1013EC0038D4464A136803F007039E4273D32A6825
:1013FC00434C12F0040F79D1130706D563682A69A0
:10140C0023F4605343EAC2036360FFF799FF6368F8
:10141C003C4AC3F30313D35CD8403B4B1860002009
:10142C0001F094FC0020BDE8F081136823F0070361
:10143C000B431360136803F007039942CCD00120CF
:10144C00BDE8F0812E49A8684B6823F0F0030343F4
:10145C004B60C4E76A682A4C012A23681CD113F438
:10146C00003FECD0636841F2883823F00303134348
:10147C006360FEF783FE6B680746012B14D163682B
:10148C0003F00C03042BACD0FEF778FEC01B4045D8
:10149C00F5D90320BDE8F081022A02D113F0007FB8
:1014AC00DFE713F0020FDCE7022B0FD1636803F0C8
:1014BC000C03082B95D0FEF761FEC01B4045F5D9F7
:1014CC00E7E7FEF75BFEC01B4045E2D8636813F00C
:1014DC000C0FF6D185E7136823F007033343136031
:1014EC00136803F007039E42A9D180E76368E9689B
:1014FC0023F4E0630B4363607EE700BF00200240EF
:10150C0000100240F73A000804000020044B054A82
:10151C005B68C3F30223D35C034A1068D84070475E
:10152C0000100240073B000804000020044B054A51
:10153C005B68C3F3C223D35C034A1068D84070477E
:10154C0000100240073B0008040000200F2303603A
:10155C000B4B5A6802F0030242605A6802F0F00228
:10156C0082605A6802F4E062C2605B68DB0803F4D4
:10157C00E0630361034B1B6803F007030B607047C8
:10158C00001002400020024003682DE9F341D90706
:10159C00054620D5354CE369DA0032D40127E369DE
:1015AC0043F08053E361E36903F080530193019BA3
:1015BC002F4E3368DB0526D5236A13F4407336D1DE
:1015CC00236A6A6823F44073134323621FB1E369EF
:1015DC0023F08053E3612868830706D5234AA96862
:1015EC00536823F440430B43536010F010001BD09E
:1015FC001E4AE9685368002023F480030B435360B0
:10160C0012E00027D4E7336843F480733360FEF7AD
:10161C00B5FD80463368D805CED4FEF7AFFDA0EB00
:10162C0008006428F6D9032002B0BDE8F0816A688E
:10163C0002F440729342C3D001200E4A236A106018
:10164C00002023F4407110602162D907B8D5FEF751
:10165C0095FD41F288380646236A9A07B0D4FEF706
:10166C008DFD801B4045F7D9DDE700BF001002401F
:10167C000070004040044242704703680020DA6862
:10168C0042F00102DA601A6842F001021A607047F7
:10169C007047704770477047036810B51A69044665
:1016AC0091070ED5DA6892070BD56FF002021A611A
:1016BC0001229B6902779B0777D0FFF7EAFF002393
:1016CC00237723681A69500710D5DA6851070DD5AE
:1016DC006FF004021A6102229B69227713F4407F97
:1016EC00204668D0FFF7D5FF0023237723681A69BB
:1016FC0012070FD5DA6810070CD56FF008021A61C3
:10170C000422DB692277990720465AD0FFF7C1FFE4
:10171C000023237723681A69D20610D5DA68D0061D
:10172C000DD56FF010021A610822DB69227713F4D1
:10173C00407F20464BD0FFF7ACFF00232377236874
:10174C001A69D10708D5DA68D20705D56FF00102FE
:10175C0020461A6101F05CFA23681A69100608D554
:10176C00DA68110605D56FF0800220461A6100F088
:10177C0082F823681A69520608D5DA68500605D52E
:10178C006FF0400220461A61FFF785FF23681A6943
:10179C00910622D5DA6892061FD56FF020022046FA
:1017AC00BDE810401A6100F065B8FFF771FF2046E4
:1017BC00FFF770FF83E7FFF76BFF2046FFF76AFF29
:1017CC0092E7FFF765FF2046FFF764FFA0E7FFF7FE
:1017DC005FFF2046FFF75EFFAFE710BD164A10B55E
:1017EC009042036805D0B0F1804F02D0134CA04258
:1017FC0010D14C6823F07003904243EA040305D0E7
:10180C00B0F1804F02D00D4A904203D1CA6823F444
:10181C00407313434A6923F08003134303608B68BE
:10182C00C3620B688362044B984204BF0B69036369
:10183C000123436110BD00BF002C01400004004097
:10184C0010B50446A0B190F83D3003F0FF021BB96F
:10185C0080F83C20FFF710FF0223206884F83D300D
:10186C00211DFFF7BBFF0123002084F83D3010BD84
:10187C00012010BD704770472DE9F0470568C2681C
:10188C002B69016923F4405313432B618368EA6885
:10189C000B43416922F4B05222F00C020B43134368
:1018AC00EB606B69826923F4407313436B61404BAB
:1018BC0081469D424FF0190446D1FFF737FE04FBD9
:1018CC0000F3D9F804604FF06408B600B3FBF6F3EC
:1018DC00B3FBF8F31E01FFF729FE6043D9F804307F
:1018EC009B00B0FBF3F7FFF721FE6043D9F80430FF
:1018FC009B00B0FBF3F3B3FBF8F308FB13731B0172
:10190C003233B3FBF8F303F0F007FFF70FFE60433D
:10191C00D9F804209200B0FBF2FAFFF707FE6043FF
:10192C00D9F804309B00B0FBF3F3B3FBF8F308FBDE
:10193C0013A31B013233B3FBF8F303F00F033B4348
:10194C003344AB60BDE8F087FFF7E0FD04FB00F328
:10195C00D9F804604FF06408B600B3FBF6F3B3FBA0
:10196C00F8F31E01FFF7D2FD6043D9F804309B0059
:10197C00B0FBF3F7FFF7CAFD6043D9F804309B00C6
:10198C00B0FBF3F3B3FBF8F308FB13731B01323317
:10199C00B3FBF8F303F0F007FFF7B8FD6043D9F899
:1019AC0004209200B0FBF2FAFFF7B0FDB7E700BFDE
:1019BC000038014010B5044640B390F8393003F0BC
:1019CC00FF021BB980F8382001F084F92423226827
:1019DC0084F83930D368204623F40053D360FFF7E2
:1019EC004BFF236800201A6922F490421A615A694D
:1019FC0022F02A025A61DA6842F40052DA6020239B
:101A0C00E06384F8393084F83A3010BD012010BD01
:101A1C0084B001A880E80E0004B000207047B0F834
:101A2C0040309BB243F43F43A0F840300020704755
:101A3C00B0F8403023F474535B045B0CA0F84030D6
:101A4C00002070470020704784B010B503AC84E8C8
:101A5C000E00BDE8104000220123A0F84030A0F891
:101A6C004020A0F84420A0F85020B0F8403004B03A
:101A7C009BB243F43F43A0F840301046704700003F
:101A8C0070B5CB780A78032B0FD8DFE803F002642B
:101A9C00505930F8223023F4EC4323F070031B042C
:101AAC001B0C43F4007320F8223040F60F730C78B3
:101ABC0030F8242044F4004545F080051A402A43B0
:101ACC0020F824208A7A0D78002A40F097804C78F0
:101ADC008A88002C4AD0B0F850405208A4B204EBCB
:101AEC00C50400EB44045200C4F800240C7830F810
:101AFC002420520608D530F82420134043F4004328
:101B0C0043F0C00320F824300A7830F8223023F454
:101B1C00E04323F040031B041B0C83F0200343F42D
:101B2C00004343F0800320F82230002070BD30F8D1
:101B3C00223023F4EC4323F070031B041B0CB2E79C
:101B4C0030F8223023F4EC4323F070031B041B0CFD
:101B5C0043F4C063A7E730F8223023F4EC4323F0BE
:101B6C0070031B041B0C43F480639CE7B0F85030EB
:101B7C0052089BB2043303EBC503520000F580649A
:101B8C0044F81320B0F850200D6992B20B7806324D
:101B9C003E2D02EBC30229D9C5F34F16EB0604BF49
:101BAC0006F1FF339EB26E4B43EA86239BB244F898
:101BBC0012300A7830F822305E040BD530F822301F
:101BCC0023F0F0031B051B0D43F4404343F080034B
:101BDC0020F822300A7830F8223023F4804323F0A6
:101BEC0070031B041B0C83F4405398E7C5F34F039D
:101BFC00ED0744BF01339BB29B02D7E730F8252099
:101C0C0022F4F8721205120D42F4014242F08002E5
:101C1C0020F82520B0F850200C7892B202EBC402C8
:101C2C00CC8800F580656408640045F81240B0F873
:101C3C0050200C7892B2043202EBC4020C89640876
:101C4C00640045F812404A780C78002A47D130F8E5
:101C5C002420550408D530F82420134043F4404385
:101C6C0043F0800320F824300A7830F822305C06E8
:101C7C000BD530F8223023F0F0031B051B0D43F479
:101C8C00004343F0C00320F822300A7830F82230A9
:101C9C0023F0F0031B051B0D43F4004343F0C0037A
:101CAC0020F8223048F280020C7830F8243023F4EB
:101CBC00804323F070031B041B0C83F44053134329
:101CCC0020F82430097830F8213023F4E04323F055
:101CDC0040031B041B0C134320F8213025E730F87C
:101CEC002420520408D530F82420134043F44043F8
:101CFC0043F0800320F824300A7830F822305B0659
:101D0C000BD530F8223023F0F0031B051B0D43F4E8
:101D1C00004343F0C00320F822300A7830F8223018
:101D2C0023F0F0031B051B0D43F4404343F08003E9
:101D3C0020F8223048F280020C7830F8243023F45A
:101D4C00E04323F040031B041B0C134320F8243006
:101D5C00097830F8213023F4804323F07003B8E77E
:101D6C000080FFFF10B58C7A4A780B78CCBB02B39D
:101D7C0030F8232052060BD530F8232022F0F00245
:101D8C001205120D42F4004242F0C00220F823204A
:101D9C000A7830F8223023F4E04323F040031B048C
:101DAC001B0C43F4004343F0800320F82230002046
:101DBC0010BD30F8232054040BD530F8232022F02A
:101DCC00F0021205120D42F4404242F0800220F85B
:101DDC0023200A7830F8223023F4804323F0700358
:101DEC00DDE7002A48D130F8232052040BD530F817
:101DFC00232022F0F0021205120D42F4404242F070
:101E0C00800220F823200A7830F822305C060BD5AB
:101E1C0030F8223023F0F0031B051B0D43F4004374
:101E2C0043F0C00320F822300A7830F8223023F037
:101E3C00F0031B051B0D43F4004343F0C00320F8D3
:101E4C00223048F280020C7830F8243023F480439E
:101E5C0023F070031B041B0C134320F82430097867
:101E6C0030F8213023F4E04323F040031B041B0C17
:101E7C00134320F821309AE730F8232052040BD575
:101E8C0030F8232022F0F0021205120D42F44042E9
:101E9C0042F0800220F823200A7830F822305B06CA
:101EAC000BD530F8223023F0F0031B051B0D43F447
:101EBC00004343F0C00320F822300A7830F8223077
:101ECC0023F0F0031B051B0D43F4404343F0800348
:101EDC0020F8223048F280020C7830F8243023F4B9
:101EEC00E04323F040031B041B0C134320F8243065
:101EFC00097830F8213023F4804323F07003B5E7E0
:101F0C000A788AB9038823F4804323F040031B0426
:101F1C001B0C83F4805383F0100343F4004343F011
:101F2C0080030380002070474B7883B130F8223057
:101F3C0023F4E04323F040031B041B0C83F0100339
:101F4C0043F4004343F0800320F82230EAE730F8F2
:101F5C00223023F4804323F070031B041B0C83F406
:101F6C008053EDE74B780A7813B330F822305B06D8
:101F7C000BD530F8223023F0F0031B051B0D43F476
:101F8C00004343F0C00320F822300A7830F82230A6
:101F9C0023F4E04323F040031B041B0C83F03003B9
:101FAC0043F4004343F0800320F8223000207047B4
:101FBC0030F822305B040BD530F8223023F0F003DC
:101FCC001B051B0D43F4404343F0800320F82230E3
:101FDC000A7830F8223023F4804323F070031B047A
:101FEC001B0C83F44053DBE711B98023A0F84C3071
:101FFC00002070470020704700207047B0F8440064
:10200C0080B270470020704710B50024013300F5F2
:10201C0080605B1000EB4202A34200D110BD31F88E
:10202C00020B22F824000134F6E7000070B50E46CE
:10203C008A694978054601293369B07A66D19A4292
:10204C001C469BBF00231446D21AB36188BFB261F1
:10205C00A3B210BBB28871692846FFF7D5FFB5F85B
:10206C00503032789BB2023303EBC20305EB4303CF
:10207C00C3F80044327835F8223023F4E04323F0DF
:10208C0040031B041B0C83F0300343F4004343F068
:10209C00800325F82230002070BD327835F82210EC
:1020AC00D20011F0400FB5F8501089B21AD002319D
:1020BC000A4405EB4202C2F8004432897169284691
:1020CC00FFF7A2FF737832789BB935F8223023F0F2
:1020DC00F0031B051B0D43F4004343F0C00325F82C
:1020EC002230C7E70A4405EB4202C2F80444F288E6
:1020FC00E4E7012BBED135F8223023F0F0031B05A9
:10210C001B0D43F4404343F08003E8E79A4293BF2E
:10211C000023D21AB261B36198BF1346327870BBF8
:10212C00B5F850103E2B89B201F1060101EBC2014A
:10213C0005F5806018D9C3F34F12DB0604BF02F11A
:10214C00FF339AB2384B43EA82239BB240F81130EA
:10215C00327835F8223023F4804323F070031B04CB
:10216C001B0C83F4405390E7C3F34F02DC0744BFCE
:10217C00013292B2920292B240F81120E8E7B9B95A
:10218C00B5F850103E2B89B201F1020101EBC201EE
:10219C0005F5806428D9C3F34F10DA0604BF00F1AB
:1021AC00FF3290B2204A42EA802292B244F81120C7
:1021BC00727831785ABBB5F850203E2B92B202F1AE
:1021CC00060202EBC10205F5806015D9C3F34F116D
:1021DC00DC0604BF01F1FF3399B2134B43EA8123B0
:1021EC009BB240F81230B3E7C3F34F02D80744BF99
:1021FC00013292B29202D8E7C3F34F01DB0744BF1E
:10220C00013189B2890289B240F81210A0E7012A83
:10221C009ED1B5F8502092B2023202EBC10205EB0E
:10222C004202C2F8003493E70080FFFF10B500248F
:10223C00013300F580605B1000EB4202A34200D139
:10224C0010BD52F8240021F814000134F6E708B54B
:10225C0080B1D0F8143213B10023C0F8143209B194
:10226C00C0F810120123027080F8FC3100F084FEDB
:10227C00002008BD022008BD19B1C0F814120020BE
:10228C0070470220704708B500F0AEFE002008BD74
:10229C0008B5D0F814320BB9022008BD1B6898475A
:1022AC000028F9D108BD08B5D0F814325B689847FE
:1022BC00002008BD38B500F502750446284600F02C
:1022CC0064FA012394F80812C4F8F431B4F80E320D
:1022DC00C4F8F83101F01F03012B0ED007D3022BE9
:1022EC0010D001F08001204600F0AAFE03E0294640
:1022FC00204600F0D5F8002038BD2946204600F0D5
:10230C00C9F9F8E72946204600F0DCF9F3E738B5BF
:10231C000446154611BBD0F8F431032B0FD1D0F87D
:10232C000C31D0F8102193420BD99B1A9A4228BF3A
:10233C001A46C0F80C3192B2294600F085FA0020FA
:10234C0038BDD0F814321B6923B190F8FC21032A54
:10235C0000D19847204600F07FFAF0E7D0F814320D
:10236C009B69002BEBD090F8FC21032AE7D198470E
:10237C00E5E770B5134604460E4600293DD1D0F86A
:10238C00F421022A0FD1C569026A954214D9AA1AFE
:10239C00C261194692B200F040FA33461A46194609
:1023AC00204600F095FE94F80032012B02D1002358
:1023BC0084F80032002070BD8369B3FBF2F502FB98
:1023CC00153565B99A420AD8D0F8F821934206D24D
:1023DC002A4600F022FAC4F8F8512B46DEE7D4F86E
:1023EC001432DB682BB194F8FC21032A01D120466E
:1023FC009847204600F03BFAD5E7D0F814325B69D9
:10240C00002BD7D090F8FC21032AD3D19847D1E7E1
:10241C00002238B5044640251146402300F0F2FD59
:10242C002B46C4F8105100228021204600F0EAFD12
:10243C00012384F8FC31D4F8183225622BB1D4F87E
:10244C00143221795B6820469847002038BD01740E
:10245C000020704790F8FC3180F8FD31042380F89F
:10246C00FC310020704790F8FD3180F8FC310020E1
:10247C00704708B590F8FC21032A04D1D0F8143227
:10248C00DB6903B19847002008BD10B504468021D4
:10249C0000F0D6FD2046BDE81040002100F0D0BD74
:1024AC0037B54B7804460D46092B79D8DFE813F085
:1024BC00C900E5007800D90078006D000A007800AA
:1024CC00B9008D004B881A0A013A062A68D8DFE851
:1024DC0002F0041C296767495200D0F810321B68BF
:1024EC000DF10601207C9847BDF80620002A67D024
:1024FC00EB88002B64D09A4228BF1A460146ADF8EF
:10250C000620204600F07CF95AE0027CD0F8143208
:10251C0032B99B6A0DF10600984702234370E3E73A
:10252C00DB6AF7E7DBB2052B3AD8DFE803F00307E9
:10253C000B0F1317D0F810325B68D1E7D0F81032BC
:10254C009B68CDE7D0F81032DB68C9E7D0F81032C1
:10255C001B69C5E7D0F810325B69C1E7D0F81032BF
:10256C009B69BDE7037CDBB9D0F814320DF1060092
:10257C005B6B9847B8E7037C93B9D0F814320DF134
:10258C0006001B6B98470723C8E78B8843B9CB8899
:10259C0033B990F8FC318D78032B05F07F0503D10E
:1025AC002046FFF772FF0BE080F8FE51294600F041
:1025BC0073FD204600F050F92DB1022384F8FC3154
:1025CC00002003B030BD0123F8E78978304D012994
:1025DC002970E5D890F8FC31022B0CD0032BDFD1FD
:1025EC00B1B90223416080F8FC31FFF75CFE204654
:1025FC0000F032F9E4E70029F9D00121032341600E
:10260C0080F8FC312046FFF743FE0228EFD1C7E7E4
:10261C0041680129EBD0C9B2FFF745FE297861600A
:10262C00F0E7CA88012ABBD190F8FC31022B03D009
:10263C00032BB5D1011D64E70146002341F8083F87
:10264C005FE790F8FC31023B012BA9D80123C36052
:10265C00D0F804320BB10323C360022204F10C0145
:10266C004FE74B88012BABD1C4F80432D4F81432A9
:10267C0029469B6820469847B9E790F8FC31023B05
:10268C00012B8DD84B88012B9AD10023ECE700BF8E
:10269C00C801002038B590F8FC310446032B0D46D8
:1026AC000DD10B79012B0AD8D0F814329B689847BE
:1026BC00EB8813B9204600F0CFF8002038BDFFF7A7
:1026CC00E4FEFAE770B50A788E8802F06002202AE0
:1026DC0004460D46F3B205D1D0F814329B689847E6
:1026EC00002070BD4A78012A1CD02AD3032AF7D1C6
:1026FC0090F8FC21022A40D0032A02D0FFF7C5FE35
:10270C00EEE74A8822B95E0602D0194600F098FC22
:10271C00D4F8143229469B6820469847204600F08E
:10272C009BF8DDE790F8FC21022A26D0032AE5D19C
:10273C004A88002AD4D15906F0D0194600F08EFCF4
:10274C00E6E790F8FC21022A17D0032AD6D103F031
:10275C007F0516F0800F00EB0515194614BF1435D4
:10276C0005F5827500F088FC68B101232B6002220C
:10277C002946204600F044F8B2E75A06B0D0194674
:10278C0000F05EFCACE72860F1E70B7803704B7847
:10279C004370CA788B7803EB022343804A790B7918
:1027AC0003EB02238380CA798B7903EB0223C3806A
:1027BC00704710B50446802100F042FC2046BDE86D
:1027CC001040002100F03CBC30B588B105462B1AF6
:1027DC0015F8014BDBB2002CF9D15B0002331380EE
:1027EC000B7003234B700223013810F8015F05B9FD
:1027FC0030BD5A1CCD54D2B20233DBB28C54F4E748
:10280C001346022210B5C0F8F42183610A46C36155
:10281C00002100F04FFC002010BD08B513460A46FD
:10282C00002100F047FC002008BD1346032210B520
:10283C00C0F8F421C0F808310A46C0F80C31002168
:10284C0000F046FC002010BD08B513460A460021D6
:10285C0000F03EFC002008BD08B50423C0F8F4319C
:10286C0000231A46194600F025FC002008BD08B5C7
:10287C000523C0F8F43100231A46194600F028FC51
:10288C00002008BD0A46018AC068FDF7C1BD1FB50E
:10289C0083688DF80C10017900938DF80D200223BC
:1028AC0003AA0068FDF708FF05B05DF804FB0022E1
:1028BC004F21FFF7ECBF00222521FFF7E8BF2329AA
:1028CC0004D826311A43C9B2FFF7E1BF7047F8B5F7
:1028DC0005460E4617460024E1B23B4632462846D2
:1028EC000134FFF7ECFF242CF6D1F8BD232903D8D3
:1028FC000131C9B2FFF7CBBF70472DE9F0410B296D
:10290C00054616461F469DF8188033D8837C01EB8C
:10291C004101012BCCB225D003D3022B0CBF424674
:10292C00002221462846FFF7E1FFEB7C611C012BBE
:10293C00C9B219D01AD3022B0CBF4246002228462A
:10294C00FFF7D4FF2B7DA11C012BC9B210D003D3F0
:10295C00022B0CBF4646002632462846BDE8F04105
:10296C00FFF7C4BF3A46DCE73A46E8E73246E6E70B
:10297C003E46F1E7BDE8F0810A460021FFF787BF2C
:10298C0010B50446FFF793FF20460121FFF7F4FF33
:10299C002046BDE810400121FFF774BF08B500F0D8
:1029AC003BFC0120FDF7F0FBF9E70000074B07B5F6
:1029BC001978012908D1002305480093FF22FFF75D
:1029CC009CFF0348FFF777FFFEE700BFC90100201B
:1029DC009802002070B5114B114C0125236078230F
:1029EC002371202323820F4B0026E3600223204611
:1029FC002375A674E574FFF7C3FF2A4631462046BB
:102A0C00FFF765FF084B1D7000F0EEFB20B1074A85
:102A1C0007496420FFF7CAFF70BD00BFB002002059
:102A2C0098020020000C0140C9010020653B000801
:102A3C00F03A0008282270B594B00DEB020000218A
:102A4C0000F078FF142210260DEB0200002100F09C
:102A5C0071FF3246002101A800F06CFF4FF4803367
:102A6C00012202250B934FF4003112934FF4E01323
:102A7C000AA80A920E920C9113931195FEF7D4FAB0
:102A8C000F23002405934FF48063294605A808936F
:102A9C00069507940994FEF795FC01A801960494F9
:102AAC00FEF772FD14B070BD2DE9F04389B0FDF74F
:102ABC0047FBFFF7BFFF102200210DEB020000F0D7
:102ACC0039FF4A4BDFF840919A69DFF8408142F0B8
:102ADC0010029A619A69464E02F010020092009A16
:102AEC009A69484642F020029A619A694EF2FF3187
:102AFC0002F020020192019A9A69002442F0040229
:102B0C009A619A69022502F004020292029A9A6969
:102B1C00012742F008029A619B69002203F0080326
:102B2C000393039BFDF774FC404600228021FDF7C4
:102B3C006FFC002230464FF62341FDF769FC4EF244
:102B4C00FF3304A948460493059706940795FDF7AF
:102B5C007FFB7F2304A94046049305940695FDF75B
:102B6C0077FB802304A940460493059706940795A8
:102B7C00FDF76EFB4FF6234304A9304604930597EB
:102B8C0006940795FDF764FB042304A930460493CF
:102B9C0005940694FDF75CFB1648174A174B8460A6
:102BAC0080E80C004FF48043C4600361446184618D
:102BBC00C4610462FDF700FD4FF4E1331048114984
:102BCC00846080E80A000C23C46043610461846162
:102BDC00C461FEF7EFFE00F049F9FFF7FBFEFFF7CB
:102BEC00DDFE204609B0BDE8F08300BF00100240B6
:102BFC00000C0140B002002000540040A0860100EF
:102C0C00040300200038014000100140000801407E
:102C1C000268034B9A4201D1FDF7A4BA704700BF7A
:102C2C00002C0140704700000E4B82B09A6942F0B4
:102C3C0001029A619A6902F001020092009ADA6923
:102C4C0042F08052DA61DB69074A03F0805301934A
:102C5C00019B536823F0E06343F00073536002B0B0
:102C6C00704700BF001002400000014010B5044640
:102C7C0086B01022002102A800F05CFE2268124BE4
:102C8C009A421ED1114C02A9A369114843F00803C2
:102C9C00A361A36903F008030093009BC023029374
:102CAC00122303930123049303230593FDF7D0FA16
:102CBC00E36943F40013E361E36903F40013019344
:102CCC00019B06B010BD00BF005400400010024034
:102CDC00000C014010B5044686B01022002102A859
:102CEC0000F028FE2268174B9A4228D103F558436E
:102CFC009A6902A942F480429A619A69124802F4D4
:102D0C0080420092009A9A6942F004029A619B698F
:102D1C0003F004030193019B4FF40073029302230D
:102D2C00039303230593FDF793FA4FF48063029307
:102D3C00002302A9044803930493FDF789FA06B013
:102D4C0010BD00BF003801400008014010B501461D
:102D5C0088B000221920FDF73BFA1920FDF76CFA18
:102D6C00144B01A99A6903A842F400629A619B6909
:102D7C00114C03F400630293029BFEF7E7FBFEF792
:102D8C00D5FB0E4B236040F2E733E3600C4BB0FBFA
:102D9C00F3F000230138606020462361A360FEF746
:102DAC004FFD20B92046FEF768FC08B010BD01208D
:102DBC00FBE700BF0010024044030020002C014040
:102DCC0040420F007047FEE7FEE7FEE7FEE7704764
:102DDC00704770470148FDF74BBE00BFA8050020A7
:102DEC000148FEF759BC00BF4403002008B50A4B4C
:102DFC000246196809B909491960694618680244FC
:102E0C008A4206D900F05CFD0C2303604FF0FF30C2
:102E1C0008BD1A6008BD00BFCC010020200C0020AA
:102E2C000F4B1A6842F001021A6059680D4A0A40A9
:102E3C005A601A6822F0847222F480321A601A687E
:102E4C0022F480221A605A6822F4FE025A604FF46F
:102E5C001F029A604FF00062034B9A60704700BFEC
:102E6C00001002400000FFF800ED00E008B5002261
:102E7C000E490F48FFF7EBF908B1FFF7D3FE0D49E8
:102E8C000B48FFF7F9F908B1FFF7CCFE0A490848DF
:102E9C0000F044FC08B1FFF7C5FE0548FFF7F3F955
:102EAC0018B1BDE80840FFF7BDBE08BD0800002002
:102EBC0084030020000100203801002007B50D4BD1
:102ECC0002689A4212D103F5DA33DA69142042F41B
:102EDC000002DA610022DB69114603F4000301935E
:102EEC00019BFDF775F91420FDF7A6F903B05DF809
:102EFC0004FB00BF005C004000F22C41D0F85C04E5
:102F0C00FFF7D8B900EB4113D3F83C22D0F85C049E
:102F1C00FFF7FDB900EB4113DA6BD0F85C04FFF757
:102F2C0028BAD0F85C04FFF7A4BA836810B5022B5A
:102F3C00044601D0FFF776FED4F85C040121FFF7BC
:102F4C0086FAD4F85C04BDE81040FFF761BA0000C3
:102F5C0010B50446D0F85C04FFF77CFAA36923B1E2
:102F6C00024A136943F00603136110BD00ED00E043
:102F7C00D0F85C04FFF777BA0223082210B5184981
:102F8C000446184880E80E000023C0F85C44C4F8DE
:102F9C0020028361C3610362FDF764FC08B1FFF793
:102FAC0041FE002218231146D4F82002FEF724F823
:102FBC00582300228021D4F82002FEF71DF8982314
:102FCC0000228121D4F82002FEF716F8D823002223
:102FDC000121D4F82002FEF70FF8002010BD00BF2D
:102FEC00005C0040A805002008B5D0F82002FDF7D1
:102FFC00A2FC03289ABF024B185C022008BD00BF3C
:10300C000F3B000810B51C46D0F820021346224690
:10301C00FDF7BCFC03289ABF014B185C022010BDC5
:10302C000F3B000808B5D0F82002FDF7D2FC0328AE
:10303C009ABF024B185C022008BD00BF0F3B000872
:10304C0008B5D0F82002FDF78BFF03289ABF024B7E
:10305C00185C022008BD00BF0F3B000808B5D0F873
:10306C002002FDF7A6FF03289ABF024B185C022032
:10307C0008BD00BF0F3B00080A06D0F8203245BF40
:10308C0001F07F0103EB411303EB411393F82A008A
:10309C0058BF93F82A02704708B5D0F82002FDF704
:1030AC0061FC03289ABF024B185C022008BD00BFCC
:1030BC000F3B000808B5D0F82002FDF7C3FC03282D
:1030CC009ABF024B185C022008BD00BF0F3B0008E2
:1030DC0008B5D0F82002FDF79DFC03289ABF024BDF
:1030EC00185C022008BD00BF0F3B00080048704769
:1030FC00D001002070477047122301480B807047A5
:10310C0024000020042301480B8070473800002065
:10311C00002330B51D46DCB2A24200D830BD040FEE
:10312C00092C94BF3034373401F8134001EB4304BD
:10313C00000165700133EEE71A2310B50B80094BC3
:10314C00186808331B68C0180AD0074B08221C6883
:10315C000649FFF7DDFF042205492046FFF7D8FF9B
:10316C00044810BDE8F7FF1FECF7FF1F3E000020DE
:10317C004E0000203C00002010B5044C0A460448C8
:10318C002146FFF721FB204610BD00BF080A002096
:10319C003A3B000810B5044C0A4604482146FFF798
:1031AC0013FB204610BD00BF080A00204E3B000850
:1031BC0010B5044C0A4604482146FFF705FB20468F
:1031CC0010BD00BF080A0020133B000810B5044CCA
:1031DC000A4604482146FFF7F7FA204610BD00BF07
:1031EC00080A0020253B000813B500F0B7F80123AE
:1031FC00044660B98DF80030064B0821019302ABF0
:10320C0013E90C0000F0E8F8204602B010BD1C4693
:10321C00FAE700BF5600002010B5054C9A21204655
:10322C0000F008F82046BDE810409A2100F014B9CF
:10323C00EC0100202DE9F04702468946804600212A
:10324C00A2EB08039BB299452DD80024E0B20021D3
:10325C00013400F051F9162CF8D100242546012137
:10326C00204600F049F90027C4EBC406F6B201363B
:10327C005FFA87FA504600F055F9012806D1A945A6
:10328C0081BFB24408F805A00135ADB20137072F54
:10329C00EED1204601340021E4B200F02DF9162CB9
:1032AC00DDD1BDE8F08702F8011BC9E7F8B5104C79
:1032BC0007462368D3B10026BE4204D12068BDE87E
:1032CC00F84000F02FBB236853F8265065B12B78DB
:1032DC0023B96B6813B1586800F024FB686800F0E0
:1032EC0021FB284600F01EFB0136E5E7F8BD00BFC8
:1032FC00080C0020014B1878704700BF8702002093
:10330C00034B1B78834284BF024B1870704700BF7D
:10331C00880200208702002010B5042000F0FAFA81
:10332C000B4B0446186008B9012010BD4FF49B608C
:10333C0000F0F0FA20600028F6D00122054B0020A6
:10334C001A70FFF7DDFF0020034B187010BD00BF93
:10335C00080C0020880200208602002070B5FFF7C0
:10336C00DBFF034678B90246084E094D31680C68FC
:10337C0095E8030014440832B2F59B6F84E803000F
:10338C00F4D1184670BD0123FBE700BF080C0020E8
:10339C0058000020014B1878704700BF88020020AD
:1033AC00094B1B7883429CBF084B18784B1E992BFA
:1033BC0008D8074B1B682BB153F8200010B100EB59
:1033CC00C100704703487047880200208702002024
:1033DC00080C00205800002013B502AC04E90C00C6
:1033EC00074C2478844209D99A2907D8054C2468BB
:1033FC0054F8200000EBC10181E80C0002B010BDB4
:10340C0088020020080C0020F8B5104B07461878ED
:10341C00FFF74CFFFFF780FFB0B90346DFF834E04D
:10342C000B4DDAB297420FD900229E00DEF8001045
:10343C008C5995E8030014440832B2F59B6F84E86C
:10344C000300F3D10133ECE7F8BD00BF8802002084
:10345C0058000020080C00202DE9F84F0C460646B9
:10346C00FFF748FF0023214A804619469246204D1B
:10347C002B602B7199540133082BFBD1013C771E27
:10348C004FF0010B26440024DFF86890B74205D1B9
:10349C0000F056F989F80080BDE8F88F17F8011F85
:1034AC0099F80000FFF77CFF03785BB1012BEDD19D
:1034BC004368002BEAD0042C9FBF1B782B5501349A
:1034CC00A4B2E3E74368002BE0D01A783AB1012AA2
:1034DC00DCD15B68002BD9D093F80080D6E75B6811
:1034EC00002BD3D01B780AF803B0CFE70C0C0020CC
:1034FC00140C002086020020152810B40A460BD8A4
:10350C00064C074B012918BF002234F8101053F851
:10351C00200010BCFCF77CBF10BC7047663B000859
:10352C00943B0008062808B50BD8074B33F810104D
:10353C00064B53F82000FCF765FF003018BF012044
:10354C0008BD002008BD00BFEC3B0008FC3B000898
:10355C002923038000487047600000200A23038061
:10356C00004870478C000020D0F81832002083F8F7
:10357C006000704710B5D0F81842E36D012B06D1EE
:10358C00D0F81C322046DB6898470023E365002006
:10359C0010BD38B50446D0F81852D0F81C32284665
:1035AC00DB68984750232A4601212046FFF790FDFF
:1035BC00002038BD38B50C78054614F06004D0F8FE
:1035CC00183203D0202C2DD0002426E04A780A2A69
:1035DC001ED00B2A23D0062A1FD14B881B0A222B64
:1035EC000BD1C888D5F81C325B2828BF5B20196822
:1035FC0002462846FFF704F9E6E7212B05D1C888D7
:10360C001C49092828BF0920F2E720462146EFE78C
:10361C00012203F15801FFF7F3F8204638BD8A78F0
:10362C009A65FAE74A78023A092A1DD8DFE802F0CF
:10363C0010081C1C1C1C1C140C058A781A65C3E78A
:10364C00012203F15001D4E74A88120A5A65BBE7FC
:10365C00012203F15401CCE701222846DA658A796C
:10366C001946FFF7E2F8AFE72846FFF7A2F8022465
:10367C00D3E700BF9800002010B504468121FFF766
:10368C00D1FC01212046FFF7CDFCD4F8183253B100
:10369C00D4F81C329B689847D4F81802FFF72AFD1F
:1036AC000023C4F81832002010BD70B505460A235B
:1036BC0003228121FFF7A6FC0A23032201212846BD
:1036CC00FFF7A0FC6420FFF711FD0646C5F81802B1
:1036DC0070B10024D5F81C3280F860405B689847C4
:1036EC005023324601212846FFF7F2FC204670BDDC
:1036FC00022070BD10B5134690F8FC21032A0BD1A3
:10370C00D0F8184294F8602032B9012284F8602075
:10371C000A468121FFF7CEFC002010BD19B1C0F87C
:10372C001C1200207047022070470020704708B51B
:10373C00502100F03FF8002008BD00207047000029
:10374C00012307B5174A8DF80030937851789B0008
:10375C0043EA4103117814480B43D17843EAC1037F
:10376C00117943EA0113517943EA41139179D279E2
:10377C0043EA811343EAC2138DF801300B4B1B78DB
:10378C008DF8023000230DEB0302195C0133052B7D
:10379C00D170F8D1082269460548FFF7ABFF03B09A
:1037AC005DF804FB0C0C0020140C00208902002096
:1037BC00840300202DE9F341044649B10378022B20
:1037CC0006D1012904D94378802B04D0812B49D010
:1037DC0002B0BDE8F0810629FAD990F8028005798B
:1037EC004679FFF7D7FD8045F2D205EB0625ADB241
:1037FC009A2DEDD80023E7780193012F23D00AD31B
:10380C00022F29D002AB03F8087D0CCB2946404689
:10381C00FFF7E2FDDCE7082000F07CF80646002804
:10382C00F0D00023A0797360307018B1012802D059
:10383C000196E7E7012000F06DF80028F8D0E37955
:10384C0003707060F4E7384600F064F80028D9D0B3
:10385C00A37903700190D5E7002000F05BF80028F5
:10386C00F8D1CFE70229B3D0807802B0BDE8F0419F
:10387C00FFF7CABD002103E00B4B5B5843500431EA
:10388C000A480B4B42189A42F6D30A4A02E000232C
:10389C0042F8043B084B9A42F9D3FFF7C1FA00F007
:1038AC0015F8FFF701F97047203C000800000020D4
:1038BC00AC010020AC010020200C0020FEE7000031
:1038CC00014B1868704700BF4801002070B50025F7
:1038DC000C4E0D4CA41BA410A54209D100F0EEF81F
:1038EC0000250A4E0A4CA41BA410A54205D170BD9C
:1038FC0056F8253098470135EEE756F825309847AD
:10390C000135F2E7183C0008183C0008183C000888
:10391C001C3C0008024B0146186800F05FB800BF61
:10392C0048010020024B0146186800F00BB800BF9C
:10393C004801002003460244934200D1704703F82B
:10394C00011BF9E738B50546002943D051F8043C72
:10395C000C1F002BB8BFE41800F0AEF81E4A136819
:10396C00104633B9636014602846BDE8384000F057
:10397C00A4B8A3420BD921686218934201BF1A68FC
:10398C005B685218226063600460EDE713465A6866
:10399C000AB1A242FAD919685818A0420BD1206872
:1039AC000144581882421960DED1106852680144F3
:1039BC0019605A60D8E702D90C232B60D4E7206831
:1039CC0021188A4201BF116852680918216062608F
:1039DC005C60C9E738BD00BF8C02002070B5CD1CFF
:1039EC0025F0030508350C2D38BF0C25002D064697
:1039FC0001DBA94203D90C233360002070BD00F019
:103A0C005BF8234A1468214691B9224C23681BB9F0
:103A1C00304600F041F820602946304600F03CF872
:103A2C00431C26D10C233046336000F046F8E4E703
:103A3C000B685B1B1AD40B2B0FD90B60CC18CD5019
:103A4C00304600F03AF804F10B00231D20F007007B
:103A5C00C31A1BD05A42E25070BD8C420BBF636834
:103A6C004B681360636018BF0C46E9E70C46496865
:103A7C00CAE7C41C24F00304A04205D0211A304626
:103A8C0000F00AF80130CDD02560D9E770BD00BF39
:103A9C008C0200209002002038B50023054C05460E
:103AAC0008462360FFF7A2F9431C02D1236803B137
:103ABC002B6038BD1C0C002070477047F8B500BF58
:103ACC00F8BC08BC9E467047F8B500BFF8BC08BCF3
:043ADC009E4670474B
:103AE00002030405060708090A0B0C0D0E0F10103F
:103AF00066776D61696E0000000000000000000143
:103B00000203040607080900000000010203040084
:103B1000020102437573746F6D2048494420436F5E
:103B20006E66696700437573746F6D204849442061
:103B3000496E74657266616365004A6F68616E6E96
:103B40006573204265726E646F72666572004A4BDF
:103B5000502050726F6772616D6D6572204B657990
:103B6000626F617264000001000200018000400089
:103B70000080004000200010000800040200010046
:103B80002000100080000001000202000020004020
:103B900000800000000801400010014000100140BA
:103BA0000010014000100140000C0140000C0140D9
:103BB000000C0140000C0140000C0140000C0140D1
:103BC000000C0140000C01400010014000100140B9
:103BD00000080140000C0140000C014000100140B1
:103BE00000100140001001400010014001004000A1
:103BF000200010000800040002000000000801403E
:103C00000008014000080140000801400008014090
:083C100000080140000801401A
:043C1800310100086E
:043C1C000D0100088E
:103C20000100000000A24A0405310008113100081B
:103C300085310008A131000845310008BD31000878
:103C4000D931000812010002000000408304000482
:103C50000002010203010000040309041A0300002A
:103C60000000000000000000000000000000000054
:103C7000000000000000040003000000000000003D
:103C800009022900010100C0C80904000002030064
:103C90000000092111010001225B00070581030AD0
:103CA0000005070501030A00050000000A060002DE
:103CB0000000004001000000092111010001225B09
:103CC0000000000005010906A1018501050719E0B2
:103CD00029E71500250175019508810295017508F0
:103CE00081039505750105081901290591029501C2
:103CF00075039103950575081500256505071900DD
:103D000029658100C00600FF0901A10185020600A6
:103D1000FF0901150026FF00750895409102C000BB
:103D2000B736000885360008C135000800000000DD
:103D300081350008753500089F3500080000000037
:103D400000000000000000005D3500085D3500083F
:103D50005D35000869350008A400002047370008D9
:103D6000373700083B3700084C01002000000000F6
:103D70000000000000000000000000000000000043
:103D80000000000000000000000000000000000033
:103D90000000000000000000000000000000000023
:103DA0000000000000000000000000000000000013
:103DB0000000000000000000000000000000000003
:0C3DC000000000000000000000000000F7
:040000050800388136
:00000001FF
